:100000000C9453050C947B050C947B050C947B0598
:100010000C947B050C947B050C947B050C947B0560
:100020000C947B050C947B050C94C2220C943F230A
:100030000C947B050C947B050C947B050C947B0540
:100040000C947B050C947B050C947B050C947B0530
:100050000C947B050C947B050C947B050C9471250A
:100060000C947B050C947B050C947B050C947B0510
:100070000C947B050C947B050C947B050C947B0500
:100080000C947B050C947B050C947B050C947B05F0
:100090000C94BB250C947B050C947B050C947B0580
:1000A0000C947B050C947B050C947B051B5B410039
:1000B000001B5B4300000A000000001B0000000062
:1000C0001B5B4200001B5B440000545479474F20E7
:1000D000762E302E302E310074003B001B5B393BF6
:1000E0000074003B001B5B383B001B5B3230317EF1
:1000F000000A001B5B3230307E001B5B3F36303B1A
:10010000323B630041000000410042000000420019
:10011000430000004300440000004400450000008C
:100120004500460000004600470000004700480028
:10013000000048004900000049004A0000004A0051
:100140004B0000004B004C0000004C004D00000034
:100150004D004E0000004E004F0000004F005000C8
:1001600000005000510000005100520000005200F9
:1001700053000000530054000000540055000000DC
:100180005500560000005600570000005700580068
:10019000000058005900000059005A0000005A00A1
:1001A0006100000061006200000062006300000066
:1001B00063006400000064006500000065006600E4
:1001C000000066006700000067006800000068002B
:1001D0006900000069006A0000006A006B0000000E
:1001E0006B006C0000006C006D0000006D006E0084
:1001F00000006E006F0000006F00700000007000D3
:1002000071000000710072000000720073000000B5
:100210007300740000007400750000007500760023
:10022000000076007700000077007800000078007A
:100230007900000079007A0000007A005B0000007D
:100240005B005D0000005D00280000002800290020
:10025000000029002E0000002E002C0000002C00C1
:100260003A0000003A003B0000003B002B00000079
:100270002B002D0000002D002A0000002A002F0076
:1002800000002F00210000002100220000002200B9
:1002900023000000230025000000250026000000A8
:1002A00026003F0000003F002700000027002A0032
:1002B00000002A007C0000007C005F0000005F005E
:1002C0003C0000003C003E0000003E00300000000A
:1002D00030003100000031003200000032003300F5
:1002E0000000330034000000340035000000350009
:1002F00036000000360037000000370038000000EC
:100300003800390000003900455343001B005245B6
:1003100054000A0054414200090044454C007F004B
:10032000BC1B5B313B3148545479474F20762E300B
:100330002E302E3220393630306270730A565432E5
:10034000323020666F722041726475696E6F0A42A6
:100350007920496E6E6F766174696F6E4761726164
:1003600067652041530A0000000000240027002A8E
:10037000002D00300000000000250028002B002E7A
:10038000003100000000002300260029002C002F6F
:10039000000404040404030405020202020403022C
:1003A000020202060606060606040402020204040D
:1003B0000408020110408040102040804080080264
:1003C00004018040201002011080102040402000D5
:1003D00000000200090F0000030401000C000000EF
:1003E0000000000000000000000000000000080BFA
:1003F00000020202010009040000010202000005DF
:10040000240010010524010101042402060524062C
:1004100000010705810310004009040100020A00E1
:1004200000000705020240000007058302400000AB
:100430000403090412010002EF0201404123368047
:1004400000010102030141726475696E6F204C4C1A
:10045000430041726475696E6F204C656F6E617206
:10046000646F00BF0203020303010104040600FFDE
:1004700005FF05FF0106020906242006747C3600EC
:100480002108749CAC0EC4002207748CA49D062322
:100490000B748C241994645052002409749C6811C4
:1004A0009329022508748C34AAA600260A749C2875
:1004B000892A5112022707749C2C2702280774AC42
:1004C0005A63022908748C306BCA002A09748C2480
:1004D0008AA64A0A2B08749C2C9AB2182C07747CA2
:1004E0005A94012D07747C6487012E06747C5A0C83
:1004F0002F0874AC2CAAE5003009749C2849965248
:100500000C3108749C482BAD003209749C28C9A298
:1005100068053308748C2D0A13193408748CA4658B
:10052000AB023508748C251313193609741C2593F6
:100530009228063708748C2DAAE5003809741CA58A
:10054000544964003909749C2889B444063A0774F4
:10055000DC1C8C013B0874DC1C8C32003C0774AC46
:10056000C62A003D0774CC7587003E07748CB054D2
:10057000073F08740C31CA81184007741CA5471541
:100580004109749C284996AE00420A740C2949A47A
:100590002491014309749C28A925510C4408740C2A
:1005A00029E945064508748C2593B2154608748CD4
:1005B0002593B21C4709741C254B9A5400480874B3
:1005C0008CA465E90A4908748C292BAD004A08748B
:1005D000ACAC528A014B09748CA4454A5A014C07B1
:1005E000748CAC6D054D08748C24B974054E087478
:1005F000ACA4B2B4034F08749C28E92906500974CE
:100600000C2949A42C075109749C28E9294C005253
:1006100009740C2949A4A4155308741C25ACC800FE
:100620005407748C296B065508748CA45F560056C9
:1006300008748CA49729065708748CA4E5520558B1
:1006400008748CA4A9D20A5908748CA4292B035AC3
:1006500008748C2DAAAD005B08741C29ABA9005C42
:1006600008748C2CACA5005D07740CAD49065E08BF
:10067000749C28C969005F06747CF2026007749C50
:1006800030A7016107745CA5930A6209748C4C4A17
:100690005A64006308745C250B5500640874AC4808
:1006A000E9A402650874DC28493415660874ACD2E4
:1006B00094C5006709745CA5A42512006808748CB1
:1006C0004C4A7A056908749C588B56006A0974ACC8
:1006D0001CC82A12006B09748C2C49A4A4156C0741
:1006E000740CAD69056D0874CC2459BA026E077498
:1006F0004C29E9156F0874DC28698A017009744C6B
:100700002949A42C037108745CA59396007208749F
:10071000CC2491B21C7308745C454C64007408745A
:100720009C68CAC214750774CCA42715760774CCCC
:10073000A4A718770874CCA465A902780974CC24FE
:10074000CAA22405790974CCA4494B24007A087400
:10075000CC2D8A56007B0874AC92564C007C0774F2
:100760009CAC33007D09748C3093B228037E0874EE
:100770009C44C96900A006747C3600A108749C1CC6
:10078000C8CA00A208749C68C9A618A30874AC9AC9
:10079000544901A40974CC2891942804A509748CA7
:1007A000248AA62C06A608749C2C07B218A70974E4
:1007B0001C5312698904A806748C2467A90A741C46
:1007C000255A16295100AA08741CA5A4AE00AB092D
:1007D00074DC4489921C01AC08747C64CB2100ADAC
:1007E00007747C648701AE09741C6558121D02AF42
:1007F00006748C9D01B008749C28897202B108743B
:100800009C688A5700B208740C2DCA740CB3087423
:100810000C2D0AA31CB40674AC3A11B50874CCA410
:10082000172903B608749C41597A04B706747C28CA
:1008300027B807747C421403B908749C48AB630062
:10084000BA08749C2889E215BB0974CC244A941C0C
:1008500002BC09748CAC98245B00BD09748CACA2FA
:10086000459900BE09740C2D0A135B00BF08749CE7
:100870001C884215C009748C304A92A50AC10874BC
:10088000AC9664A902C209740C2D4A92A50AC30948
:10089000741C53922C5500C409748C24AA244B1543
:1008A000C509749C2C4A92A50AC60A749C21490663
:1008B000A52202C709749C28A925510DC808748C6B
:1008C0006C91B215C90874AC6491B215CA08741C55
:1008D0006591B215CB09748C2459A46C05CC0874AD
:1008E0008C6CCAA215CD0874AC64CAA215CE08746B
:1008F0009C68CAA215CF09748C24CA4A2B00D0095F
:10090000748C29592A430AD109749C44492E5500F4
:10091000D209748C304A9A6200D30774AC96A61838
:10092000D409749C2C4A9A6200D508749C61E9141D
:1009300003D609748C24AA34C500D70974CC24AA20
:10094000E41000D809741CA5B2546400D909748C51
:10095000304A5A5600DA0774AC969615DB08749C38
:1009600038695901DC09748C244D5A5600DD08742D
:10097000AC3489B218DE09748C4C4A122907DF0B9B
:10098000749C2849A424593200E009748C30534ADD
:100990002A00E10874AC9A525201E208741C5929E9
:1009A000A900E309749C448994920AE409748C2494
:1009B000564A2A00E509749C1C504A2A00E608742D
:1009C000DC2159A211E70974DC28294A1100E80941
:1009D000748C304A124D05E90874AC96445301EA10
:1009E00009740C2D4A124D05EB09748C24AA249A23
:1009F0000AEC08748C302BAD00ED0874AC442BADC0
:100A000000EE09749C2889B26805EF08748C24D51F
:100A1000A215F009748C24CA94520CF109749C44F8
:100A200049A4A415F209748C308B922806F309743A
:100A3000AC5A94443100F409749C1C88922806F541
:100A400008748C394AA218F609748C248E922806F0
:100A5000F707749C788E01F807745CA58B0CF90974
:100A6000748C304A9A5400FA0774AC962615FB0829
:100A7000749C38695201FC09748C244D9A5400FD11
:100A80000974AC96644B2400FE0A748C2C93924437
:100A9000CA00FF0A748C244D922D910000000004BE
:100AA000FFFF00002D2711241FBECFEFDAE0DEBFCD
:100AB000CDBF11E0A0E0B1E0E4EEF7E502C00590A3
:100AC0000D92AA3BB107D9F72AE0AAEBB1E001C029
:100AD0001D92A537B207E1F715E0C3E5D5E004C0E4
:100AE0002197FE010E94E32BC235D107C9F70E946E
:100AF0006D280C94F02B0C940000662329F06A30CA
:100B000019F0862F90E008958FEF9FEF0895CF9210
:100B1000DF92EF92FF920F931F93CF93DF93EC013D
:100B2000842F8770E1E0F0E0082E01C0EE0F0A94F8
:100B3000EAF73E2F7E019AE7E90EF11CD7019C915E
:100B400010E0923018F41E2F913029F150E0487FC8
:100B5000E9ADFAADC880D980D60150969C91949F9A
:100B60006001959FD00C11246C0D7D2D711DDF014E
:100B7000A60FB71F011115C08C91812B83278D9370
:100B80002150D1F7DF91CF911F910F91FF90EF90FE
:100B9000DF90CF90089530E0D9CF110F330F22238B
:100BA00089F39C91912B93279C938F5F87702150A1
:100BB0008111F3CF9DADA90FB11DF7019081923046
:100BC00028F4913009F031E011E0E9CF31E0E7CFCE
:100BD00080E0089580E0089583E08093E9008091AB
:100BE000F200882319F08AE38093E8000895809347
:100BF0006F0A0895CF93DF93C1EFD9E08093310A54
:100C0000EBADFCAD0190F081E02D85EF99E0099509
:100C1000EBADFCAD0280F381E02D85EF99E0DF9133
:100C2000CF910994CF92DF92EF92FF920F931F938F
:100C3000CF93DF9300D000D01F92CDB7DEB7C09026
:100C4000300A0091310AE091F509F091F609D18856
:100C5000102FF12CE12CE091F509F091F609808933
:100C600020912E0A30912F0A1C821D838B8348E02D
:100C7000849FC00111248E9DA0018F9D500D9E9DCB
:100C8000500D1124240F351F3A832983E091F9096F
:100C9000F091FA099E012F5F3F4F41E06FE085EF31
:100CA00099E009951F5F812F801B8C1528F48FEF29
:100CB000E81AF80A1D1578F20F900F900F900F9018
:100CC0000F90DF91CF911F910F91FF90EF90DF90E8
:100CD000CF900895FC0180919804882311F13FB7CB
:100CE000F89482E08093E9002091F200822F90E056
:100CF0001816190614F481E090E0882339F028983A
:100D000044E6409397044091F1004083222339F058
:100D10002091F200211103C02BE62093E8003FBF91
:100D200008958FEF9FEF08959B01DC011896ED91D8
:100D3000FC9141E067E109942FB7F89483E0809338
:100D4000E9009091E800892F807295FF04C090918E
:100D5000F20080E4891B2FBF089580918F048111D8
:100D60000DC082E080938B0484E080938C04109209
:100D70008E0410928D0481E080938F048BE894E0C0
:100D80000895409185045091860420918304309108
:100D9000840442175307B4F49091E8009570E1F38E
:100DA0009091E80092FD19C08093F1008091850434
:100DB0009091860401968F739927892B19F48EEFF1
:100DC0008093E80080918504909186040196909329
:100DD00086048093850481E0089580E00895DF9281
:100DE000EF92FF920F931F93CF93DF93D82E8A0138
:100DF000EB017B01E40EF51ECE15DF0559F0D7FEA1
:100E000012C0FE0184910E94C10621968111F4CF87
:100E10000FEF1FEFC801DF91CF911F910F91FF904E
:100E2000EF90DF9008958881EECF0F931F93CF93BB
:100E3000DF931F92CDB7DEB782E0898342E450E0B2
:100E40006EEE73E080E80E94EF060E94AD06DC01C2
:100E500012960D911C910115110589F0D801ED91A3
:100E6000FC910280F381E02DBE016F5F7F4FC801CE
:100E7000099597FD04C0F80100851185ECCF8981A3
:100E80000F90DF91CF911F910F910895615030F035
:100E90002091F100FC0120830196F8CF289884E688
:100EA000809397040895CF93DF931F92CDB7DEB759
:100EB0006983DC01ED91FC910280F381E02D41E03A
:100EC00050E0BE016F5F7F4F09950F90DF91CF918A
:100ED00008950F931F93CF93DF938C01D0E0C0E070
:100EE000F801EC0FFD1F6491662341F089E994E05D
:100EF0000E945307892B11F02196F2CFCE01DF918A
:100F0000CF911F910F9108950C94EC050E949C06BF
:100F100090E00895CF93DF931F92CDB7DEB7FC0129
:100F20008485958597FD08C02FEF3FEF358724878F
:100F30000F90DF91CF910895CE0101960E946A062D
:100F4000019719F4898190E0F3CF8FEF9FEFF0CFF5
:100F50000F931F93CF93DF931F92CDB7DEB78C0112
:100F6000FC018485958597FF0BC0CE0101960E94F8
:100F70006A06019771F4898190E0F801958784876A
:100F8000F801848595850F90DF91CF911F910F9186
:100F900008958FEF9FEFF1CFFC018485958597FD34
:100FA0000BC09FB7F89482E08093E9008091F20033
:100FB0009FBF90E0019608959FB7F89482E08093D8
:100FC000E9008091F2009FBF90E0089581508F303A
:100FD00008F047C0E82FF0E0E051F84F0C94E32B05
:100FE0000D081108FF070508090831083108310804
:100FF00014081A081E082208280831082C088091B5
:1010000080008F77809380000895809180008F7D8D
:10101000F9CF80918000877FF5CF84B58F7784BD2D
:10102000089584B58F7DFBCF809190008F7780935A
:1010300090000895809190008F7DF9CF809190006D
:10104000877FF5CF8091C0008F778093C00008958F
:101050008091C0008F7DF9CF8091C200877F8093FF
:10106000C2000895CF93DF93282F30E0F901E153B8
:10107000FC4F8491F901E055FC4FD491F901EF56F2
:10108000FC4FC491CC23A1F081110E94E607EC2F04
:10109000F0E0EE0FFF1FED57FC4FA591B491EC91DE
:1010A000ED2381E090E009F480E0DF91CF91089595
:1010B00080E090E0FACF1F93CF93DF93282F30E0AA
:1010C000F901E153FC4F8491F901E055FC4FD491B3
:1010D000F901EF56FC4FC491CC23A9F0162F8111D2
:1010E0000E94E607EC2FF0E0EE0FFF1FEB58FC4FDD
:1010F000A591B4918FB7F894EC91111108C0D095D7
:10110000DE23DC938FBFDF91CF911F910895DE2BFB
:10111000F8CFCF93DF9390E0FC01E055FC4F249192
:101120008F569C4FFC0184918823C9F090E0880F72
:10113000991FFC01E959FC4FA591B491FC01EB58B2
:10114000FC4FC591D49161110DC09FB7F8948C915B
:10115000209582238C938881282328839FBFDF9149
:10116000CF910895623051F49FB7F8943C91822F4B
:10117000809583238C93E8812E2BEFCF8FB7F89443
:10118000EC912E2B2C938FBFEACF3FB7F894809130
:101190007F0490918004A0918104B091820426B5CF
:1011A000A89B05C02F3F19F00196A11DB11D3FBF9F
:1011B000BA2FA92F982F8827BC01CD01620F711D6E
:1011C000811D911D42E0660F771F881F991F4A9568
:1011D000D1F708958F929F92AF92BF92CF92DF92F4
:1011E000EF92FF926B017C010E94C5084B015C01EC
:1011F000C114D104E104F104B9F00E94C5086819D2
:1012000079098A099B09683E73408105910580F33D
:1012100021E0C21AD108E108F10888EE880E83E0C7
:10122000981EA11CB11CE4CFFF90EF90DF90CF90EF
:10123000BF90AF909F908F9008958F929F92AF92A2
:10124000BF92CF92DF92EF92FF920F931F93CF93B3
:10125000DF936C017B018A0180910D01882309F4E1
:101260005CC080919804882309F457C08091890458
:1012700080FF05C08091E00082608093E000E8017B
:10128000B12C8AEFA82E93E0892E2AE3922E209784
:1012900011F4BB20D9F10E949C0681110AC0AA94C6
:1012A000AA20D9F161E070E080E090E00E94EA08B5
:1012B000EECF8C171D0611F00CF08C2F9FB7F89411
:1012C0008092E9002091E80025FD02C09FBFDFCF9A
:1012D000282F30E0C21BD30BF701815020F0419141
:1012E0004093F100FACFE20EF31EBB2021F0909262
:1012F000E800B12CEBCF8091E80085FDE7CF90921C
:10130000E800BB24B394209709F3F3CF5D9884E6FB
:1013100080938804101611063CF081E090E0F601FD
:101320009383828310E000E0C801DF91CF911F9189
:101330000F91FF90EF90DF90CF90BF90AF909F9074
:101340008F9008952FB7F89460917B0470917C047E
:1013500080917D0490917E042FBF089585ED809348
:10136000BC008091BC0084FDFCCF10925404089511
:1013700020913004260F3327331F21323105ECF43E
:1013800020915404FC0190E080E0243069F082E078
:101390000895A09130042191AC01405F5B4FA40FF0
:1013A000B52FB11D2C930196861798F380913004C8
:1013B000680F6093300480E0089581E008950895F7
:1013C0008FEF9FEF08958FEF9FEF089580910F04A7
:1013D00090E09195819591090895CF93DF93CB018A
:1013E000EA01642F0E94B809CE01DF91CF910895E0
:1013F000CF93DF931F92CDB7DEB7698361E0CE0153
:1014000001960E94B80981E090E00F90DF91CF91A2
:101410000895DC011A96ED91FC9130E020E00994EA
:10142000DC011696ED91FC9130E020E040E069E1AE
:101430000994DC011696ED91FC9130E020E040E04B
:1014400068E109949A01DC011696ED91FC91462F12
:1014500067E10994EF92FF920F931F93CF93DF936D
:101460001F92CDB7DEB77C018B01D8016C9167313B
:1014700029F150F46531A0F40F90DF91CF911F91C5
:101480000F91FF90EF9008956A3118F16E3FA1F728
:10149000F8014181498369E2C7010E94090A0BC032
:1014A000F80141814983D7011696ED91FC9130E016
:1014B00020E0C70109950E5F1F4FD7CFF80181814A
:1014C0008983AE014F5F5F4F61E0C7010E94220A2E
:1014D000F2CF0F5F1F4FD7011696ED91FC9130E0D0
:1014E00020E040E0C7010995C0CF462FDC011696E9
:1014F000ED91FC9130E020E066E10994462FDC019B
:101500001696ED91FC9130E020E065E10994EF92B0
:10151000FF920F931F93CF93DF93EC01042F790178
:101520006D3009F446C050F46B30C9F1693009F4EC
:101530009FC06A3009F465C080E046C06E3009F48F
:1015400052C06F3099F70E94190AF7011381110FE9
:10155000110F110F6C89160F60E4CE010E947E0AF4
:10156000612F62956F706061CE010E947E0A612FCB
:101570006F70CE010E94750AF7016481606BCE0125
:101580000E94750AF701408151816281660F660FE2
:10159000660FCE010E94220A0150A1F72EC064E21C
:1015A00071E0442311F06FE171E0CE010E942A0A3C
:1015B0000AC0411110C068E171E00E942A0AE88166
:1015C000F98182898C8B81E0DF91CF911F910F91FE
:1015D000FF90EF90089561E171E00E942A0AE8818E
:1015E000F9818389EFCF0E94190A61E8CE010E9438
:1015F0007E0A602FCE010E94750ACE010E94100A59
:10160000E2CFEA85FB8530E020E040E068E2CE01F1
:101610000995EE81FF8130E020E040E064E1CE01F9
:10162000099541E06BE4CE010E94090AE881F98145
:10163000448169E2CE010E94090A40E06BE4CE01D8
:101640000E94090AE881F981448169E2CE010E9481
:10165000090A41E06BE4CE010E94090AE881F981A0
:10166000458169E2CE010E94090A69E271E09DCFDD
:101670008EE591E0998388831C8AA5CFCF93DF9371
:101680001F92CDB7DEB76983BE016F5F7F4F0E94A7
:1016900094060F90DF91CF910895462FDC011896A4
:1016A000ED91FC9130E020E060E20994EF92FF922E
:1016B0000F931F93CF93DF938C01C62FD42F790103
:1016C000673130F46531B8F4643131F080E01BC02B
:1016D000673101F16A31D0F7D8011896ED91FC918C
:1016E00097014D2F6C2FC801DF91CF911F910F9162
:1016F000FF90EF90099460E00E944D0B6D2FC801A0
:101700000E943E0B81E0DF91CF911F910F91FF90DE
:10171000EF90089561E00E944D0BDECFFC0166233F
:10172000D9F16A30C9F1818D811125C06C3F48F033
:1017300085E0818F617070E0738B628B2EEF3FEFDD
:1017400029C0683F20F084E0818F6370F4CF603F50
:1017500020F083E0818F6770EECF603E20F082E062
:10176000818F6F70E8CF262F30E0603C98F081E0E9
:10177000818F6F71E0CF8150818F2289338996E00C
:10178000220F331F9A95E1F76F73262B338B228B31
:101790008111D4CFC90108952FEF3FEFFBCF0F93F5
:1017A000DC01DF963C91DF97431BD596ED91FC91D0
:1017B00009950F910895CF93DF93FC01A081B1812A
:1017C00083AD982F990F990F990F96AF50969C91D2
:1017D0005097903208F09FE1990F990F990F95AFAC
:1017E00024AD922F990F990F990F97AF51963C9175
:1017F0005197682F620F7727771F3617170614F453
:10180000832F821BEF01C05CDF4F98832196880FE6
:10181000880F880F890F8883219680EF88835496DC
:101820008D919C915597813F910508F48883ED5BDC
:10183000FF4F56968C918083DF91CF9108950F933F
:10184000FC01EA5BFF4F308131965081451730F43F
:10185000301738F0041728F080E013C03017D0F3A9
:10186000FBCFFC01EC5BFF4F30818B5B9F4FFC019A
:101870008081681740F481E0321718F081E0261764
:1018800058F70F9108953217C8F3E6CF2F923F9281
:101890004F925F926F927F928F929F92AF92BF9280
:1018A000CF92DF92EF92FF920F931F93CF93DF932C
:1018B000EC014C0184E4880E911CF40110823297F3
:1018C00020805E01F5E4AF0EB11CF5012082359752
:1018D00030806E01F6E4CF0ED11CF60130823597D0
:1018E00040807E01F7E4EF0EF11CF7014082349650
:1018F0001081329760803196708032975080012F2E
:10190000262D472D652DCE010E941F0CCC58DF4F90
:10191000811114C01882DF91CF911F910F91FF9018
:10192000EF90DF90CF90BF90AF909F908F907F907F
:101930006F905F904F903F902F90089581E0888343
:10194000552011F0F4015082621410F4F501608208
:10195000371410F4F60170821415E8F6F7011083BD
:10196000DACF0F93DC01802FFD01EC58FF4F9081FF
:101970009923E9F12223D9F1223020F0023079F5C0
:101980006F5F621B082F0170FD0180FD32C0EA5BB2
:10199000FF4F8081481758F131968081481738F5FC
:1019A0003297908131978081260F2617F0F46917BE
:1019B000D8F42FEF290F8217D0F4681708F4682F96
:1019C000291708F4922F961BD796ED91FC91D89782
:1019D0000480F581E02D292FCD01099508C0033041
:1019E00089F64F5F421BCECF682F691720F30F9106
:1019F0000895EC5BFF4F80816817C8F331968081B2
:101A00006817A8F73296908131978081240F2417A8
:101A100078F4491760F42FEF290F821740F7481721
:101A200008F4482F291708F4922F941BCDCF482F84
:101A30004917E8F6F2CF0F931F93CF93DF93C82F88
:101A4000162FD82FD40F0D2F262F482F60E085EFAB
:101A500099E00E941F0C81110EC0DF91CF911F9160
:101A60000F91089500E0212F4C2F60E085EF99E061
:101A70000E94B10CCF5FDC13F5CFEFCF213039F0EE
:101A800020F0223031F0840F0895860F0895841BD2
:101A90000895861B0895213039F020F0223031F06E
:101AA000861B0895840F0895860F0895841B08955A
:101AB0005F926F927F928F929F92AF92BF92CF92DE
:101AC000DF92EF92FF920F931F93CF93DF935C010E
:101AD000162F642EEC01C05BDF4FDC80ED804C01E3
:101AE0008AE7880E911CFE80FD18C12EF11608F4BD
:101AF000CF2C5B800C85202F4E2D6D2D8A810E946E
:101B00003E0D782E202F4E2D6D2D852D0E944B0DD4
:101B1000482F662071F08A85F40180832C2D672D73
:101B2000C5010E94B10C1F1548F01F19E394D12C78
:101B3000DACF89858111F7CF8B85EECF1D0D1C8300
:101B4000ED82DF91CF911F910F91FF90EF90DF9089
:101B5000CF90BF90AF909F908F907F906F905F904D
:101B60000895DC0118964C911897ED91FC9111970E
:101B7000249130E0042E02C0359527950A94E2F7AF
:101B8000842F860F883068F031961196FC93EE937F
:101B9000E49198E0941B01C0EE0F9A95EAF72E2B82
:101BA000885018968C938FEF9FEF01C0880F6A952D
:101BB000EAF7809582230895FC01E60FF11D8491D8
:101BC00090E0982F88273196E4918E0F911D08950B
:101BD0000F931F93CF93DF938C01C62F642FCC32CA
:101BE000E8F4CA3208F041C0C83271F1C93209F4D0
:101BF00042C080E0C034D0F1CF73F801EC0FF11D8A
:101C0000878D8F3F91F1C031E0F00E94320821E0D2
:101C1000892B09F420E0F801228F27C0CD3289F109
:101C200040F384EB8C0F823020F7CF73C00FD12F9D
:101C3000D11D8F8D411133C061E00E94890860E0A1
:101C40008F8D0E945B0811C0015E1F4FD0E0F8012C
:101C500081918F018F3F31F061E0D03108F062E077
:101C60000E948908DF5FD63191F781E0DF91CF9143
:101C70001F910F91089570E090E080E00E94EA08C3
:101C8000F4CF85E090E0433010F082E090E0880FE0
:101C9000991F880F991F05970197F1F7E6CF62E02A
:101CA0000E948908E2CFEF92FF920F931F93CF9388
:101CB000DF9320910A0430910B04009108041091E5
:101CC00009042F5F3F4F48E0E42EF12CC1E0D0E043
:101CD000F9010217130784F1C901B7010E94AD2B66
:101CE0002F5F3F4FAF01F7FF02C0495F5F4F93E0A7
:101CF000559547959A95E1F7DA01AC5FBB4F4C914A
:101D000050E0BE01082E02C0660F771F0A94E2F76A
:101D10004623572302C0559547958A95E2F7452BF0
:101D2000B9F2F0930B04E0930A04DF91CF911F9175
:101D30000F91FF90EF90089530930B0420930A04C5
:101D4000F4CFEF92FF920F931F93CF93DF9381E035
:101D500090E090930104809300048091FE039091A1
:101D6000FF039093030480930204C0910804D09170
:101D70000904E1E0F0E008E010E0EE24E394F12C47
:101D8000CE17DF073CF1CF01B8010E94AD2BDF0178
:101D900093E0B695A7959A95E1F7AC5FBB4F970195
:101DA000082E01C0220F0A94EAF720959C9129235E
:101DB000BF01615071096770772741E050E0672BE0
:101DC00009F040E001C0440F8A95EAF7242B2C93D8
:101DD0003196D6CFDF91CF911F910F91FF90EF9069
:101DE0000895BF92CF92DF92EF92FF920F931F93CD
:101DF000CF93DF939C01EA014130510509F478C08B
:101E000042305105E1F1CD2B09F0A9C00091080441
:101E10001091090461507109609FE001619FD00D2C
:101E2000709FD00D1124C80FD91FC358DD4F70E229
:101E3000B72EE8E0CE2ED12CEE24E394F12C02173D
:101E400013070CF48CC0CE018E579240B992FC015E
:101E500097FD379663E0F595E7956A95E1F7E25BC4
:101E6000FD4FB6010E94AD2BA70101C0440F8A951A
:101E7000EAF78081842B80832F5F3F4FE0CF009172
:101E800008041091090461507109609FE001619F8D
:101E9000D00D709FD00D1124C258DD4F21E030E0ED
:101EA00090E2B92E48E0C42ED12CEE24E394F12C1C
:101EB000021713070CF453C0CE018E579240B9920B
:101EC000FC0197FD379643E0F595E7954A95E1F7D4
:101ED000E25BFD4FB6010E94AD2BA70101C0440F8C
:101EE0008A95EAF78081842B80832F5F3F4FE0CF74
:101EF000615071098091080490910904689F8001E4
:101F0000699F100D789F100D112402581D4FA0E2FB
:101F1000BA2EB8E0CB2ED12CEE24E394F12C2C1762
:101F20003D07ECF0C8018E579240F801B1928F0145
:101F3000FC0197FD379653E0F595E7955A95E1F743
:101F4000E25BFD4FB6010E94AD2BA70101C0440F1B
:101F50008A95EAF78081842B80832196E0CFDF91F8
:101F6000CF911F910F91FF90EF90DF90CF90BF9096
:101F700008958F929F92AF92BF92CF92DF92EF928D
:101F8000FF920F931F93CF93DF93E0910004F091A2
:101F90000104E817F9070CF4FC01209102043091C8
:101FA0000304621773070CF49B014130510509F0DB
:101FB00056C08F0101501109A8E0EA2EF12CAA2485
:101FC000A394B12C2E173F070CF4A4C0C1E0D0E0BD
:101FD00060910804709109046C177D07E4F1069F75
:101FE000C001079F900D169F900D1124AE01415026
:101FF0005109840F951FDC01A258BD4F4D016E9F02
:1020000060016F9FD00C7E9FD00C112442585D4F11
:10201000C40ED51ED6014C91D4014C936C0197FF90
:1020200003C0B7E0CB0ED11C73E0D594C7947A956A
:10203000E1F7A601425B5D4F6A01B7010E94AD2B3B
:10204000A50101C0440F8A95EAF7D6018C91842B33
:102050008C932196BDCF31960F5F1F4FB3CF89016F
:10206000015011092250310958E0E52EF12CAA2423
:10207000A394B12CC80101968E179F070CF44AC097
:10208000C1E0D0E060910804709109046C177D07ED
:102090002CF40150110921503109ECCF609FC0018F
:1020A000619F900D709F900D1124AE014150510918
:1020B000840F951FDC01A258BD4F4D01269F600182
:1020C000279FD00C369FD00C112442585D4FC40E70
:1020D000D51ED6014C91D4014C936C0197FF03C0DF
:1020E000B7E0CB0ED11C43E0D594C7944A95E1F7F5
:1020F000A601425B5D4F6A01B7010E94AD2BA501AD
:1021000001C0440F8A95EAF7D6018C91842B8C93F9
:102110002196B8CFDF91CF911F910F91FF90EF9053
:10212000DF90CF90BF90AF909F908F900895CF9306
:10213000DF9310924D0210924C0220910A043091CC
:102140000B048091080490910904821793079CF472
:1021500080910C0490910D0421E030E030930B0449
:1021600020930A04019690930D0480930C043093FD
:102170004D0220934C02C0910204D091030480913F
:102180000C0490910D04C817D907A4F4D0930D0442
:10219000C0930C0441E050E0BE0190E080E00E945A
:1021A000B90F42E050E0BE0190E080E0DF91CF91B6
:1021B0000C94F10EDF91CF910895CF93DF93C091EE
:1021C0000A04D0910B0440910C0450910D0441502D
:1021D00051096091080470910904469F9001479F3E
:1021E000300D569F300D1124AE0141505109240F7E
:1021F000351FF901E258FD4F8083F90137FD37960D
:1022000083E0F595E7958A95E1F7E25BFD4FC9011B
:1022100068E070E00E94AD2B21E030E001C0220FA9
:102220008A95EAF78081822B80832196D0930B04D4
:10223000C0930A04DF91CF910C949710CF93DF9352
:1022400089E994E00E94CC07882379F0C0910001CD
:10225000D091010189E994E00E948A07FE01099565
:102260009093010180930001EBCFDF91CF9108950E
:10227000CF93DF93D0E0C0E0FE01E05EFC4F84919D
:10228000E0910001F0910101099590930101809383
:1022900000012196C634D10579F7DF91CF910895D9
:1022A00088EC90E09093480280934702089580E084
:1022B00090E0A0E2B1E48093410290934202A093A7
:1022C0004302B09344022091450230914602C90175
:1022D000019697FF07C0865A9F4F909346028093BE
:1022E000450208958A359105C4F3C90189559109BC
:1022F000F4CF80E090E0A0E8B0EC809341029093AE
:102300004202A0934302B0934402209145023091CF
:102310004602C901019797FF07C0865A9F4F9093C5
:1023200046028093450208958A359105C4F3C90198
:102330008B559109F4CFCF92DF92EF92FF920F93DA
:102340001F93182F0E94A209C0902302D09024024C
:10235000E0902502F0902602C616D706E806F90698
:1023600030F5112359F10E9457110E94A209E09102
:102370004702F09148028F010F2E000C220B330B05
:10238000AB01BC01400F511F621F731F409323021A
:102390005093240260932502709326021E161F0696
:1023A00034F4CF014E9790934802809347021F91D7
:1023B0000F91FF90EF90DF90CF9008950E947911D8
:1023C000D4CF80E00C949B1181E00C949B1181E0B0
:1023D0000E94F70580914702909148026CE070E0FE
:1023E0000E94AD2B462F6091370A809149028111DE
:1023F00009C08091380A895F90913F02891B841B34
:102400000C941B0D80E0FCCF80E00E94F70540910A
:102410003B026091370A80914902811105C0809189
:10242000380A841B0C941B0D80E0FCCF8C3909F416
:102430004BC08B3339F4109222021092210287E6AE
:1024400092E1089590912002911105C0809320029D
:1024500086E192E1089540911E0250911F0245309D
:1024600051051CF59A3324F590539295907F8A3349
:102470002CF580536091210270912202E5E0E69FE5
:102480009001E79F300D11242E513E4FF901E40FCA
:10249000F51F890F80834F5F5F4F50931F0240935A
:1024A0001E02240F351FF901108210922002D0CF96
:1024B000973614F49755D9CF90E0D7CF873614F4D8
:1024C0008755D8CF80E0D6CF81ED92E108958C3941
:1024D00079F140912102509122028F3291F41092B1
:1024E000200210921F0210921E0285E0849FF001CC
:1024F000859FF00D1124EE51FE4F108286E192E18E
:1025000008959AE0949F9001959F300D1124082E14
:10251000000C990BC097820F931F6CE070E00E9433
:10252000992B909322028093210287E692E10895ED
:1025300081ED92E108958C3961F08B3319F08BE9CC
:1025400092E10895109222021092210287E692E110
:10255000089581ED92E108958C3941F08B3319F49F
:102560008BE992E108958CEA92E1089581ED92E180
:1025700008951092200210922202109221021092CD
:102580001F0210921E020C94AC1281ED92E108958C
:1025900081ED92E1089581ED92E1089581ED92E15E
:1025A0000895EBEFE80FE73108F090C00E2E000C15
:1025B000FF0BE352FD4E0C94E32BFD126613FA124F
:1025C000241302130C130C130C13F412FA12FA1244
:1025D0006613661366136613661366136613661333
:1025E000661366136613051381E090E090930B0465
:1025F00080930A0481ED92E108958AEC90E00E94B4
:102600006907F8CF0E94530EF5CF10924D02109239
:102610004C0282E392E2089580914C0290914D0227
:10262000892B79F481E090E090930B0480930A0465
:1026300080910C0490910D04019690930D04809369
:102640000C040E949710D6CF80910A0490910B043D
:10265000823091052CF0019790930B0480930A042B
:1026600020910C0430910D0421503109409108044F
:1026700050910904249FC001259F900D349F900D17
:10268000112420910A0430910B0421503109820F4A
:10269000931FFC01E258FD4F20E22083FC0197FDCF
:1026A000379623E0F595E7952A95E1F7E25BFD4F34
:1026B00068E070E00E94AD2B21E030E001C0220F05
:1026C0008A95EAF78081822B8083BBCF0E94DD1040
:1026D00091CF2F923F924F925F926F927F928F9203
:1026E0009F92AF92BF92CF92DF92EF92FF920F93A1
:1026F0001F93CF93DF936C01CBE2D9E086E0282EC5
:10270000312C92E0492E512C66246394712C8881DF
:10271000998197FD33C00E9432087C010885198594
:102720000E94A2094B015C018F89988D009751F49A
:10273000E016F10619F5788E6F8A898E9A8EAB8E27
:10274000BC8E1CC08130910509F05FC0898D9A8DC7
:10275000AB8DBC8DB501A401481B590B6A0B7B0BDB
:10276000E016F106A9F18A819B81B0E0A0E048174C
:1027700059076A077B0728F5188E1F8AA19689E0FA
:10278000C13FD80721F60E94A209665F7F4F8F4F95
:102790009F4FF6016283738384839583DF91CF918A
:1027A0001F910F91FF90EF90DF90CF90BF90AF906F
:1027B0009F908F907F906F905F904F903F902F9061
:1027C0000895588E4F8A8D8E9E8EAF8EB8A2D6CF2A
:1027D0008E819F81B0E0A0E084179507A607B70718
:1027E00068F681E08A87EF85F889309709F00995C6
:1027F000E989FA89309709F00995ED89FE893097C2
:1028000009F00995388E2F8ADECF82309105D9F5EF
:102810008D859E85892B99F0898D9A8DAB8DBC8D88
:10282000B501A401481B590B6A0B7B0B8C819D8160
:10283000B0E0A0E084179507A607B70738F4EB854A
:10284000FC85309709F498CF099596CFE016F106EC
:1028500009F094CF8D8D9E8DAF8DB8A1B501A401E7
:10286000481B590B6A0B7B0B8A819B81B0E0A0E06F
:1028700084179507A607B70708F080CFE3E0F0E0DC
:10288000F88FEF8B5ACF8330910501F5E016F106F2
:1028900009F474CF898D9A8DAB8DBC8DB501A401DF
:1028A000481B590B6A0B7B0B8A819B81B0E0A0E02F
:1028B00084179507A607B70708F060CFED85FE855A
:1028C000309709F00995188E1F8A7DCF069709F079
:1028D00055CFE016F10621F01A86EB89FC89F0CF7E
:1028E000F1E0FA87ED89FE89309709F447CF099521
:1028F00045CFEBE2F9E014861386128A118A168A14
:10290000158A148A138AB19689E0E13FF80799F78E
:1029100008958AE080934A0281E080934B020C94F0
:10292000791488E280934A020C9479140E947914F5
:10293000A3E1B9E0EBE2F9E08D919C9111979487C6
:10294000838712968D919C911397928B818B14960D
:10295000B19689E0E13FF80779F789E894E190932F
:102960005E0980935D090895CF92DF92EF92FF9206
:102970000F931F93CF93DF936C01EB017B01E40E68
:10298000F51E10E000E0CE15DF0561F06991D6017B
:10299000ED91FC910190F081E02DC6010995080FA1
:1029A000191FF1CFC801DF91CF911F910F91FF90B7
:1029B000EF90DF90CF9008953F924F925F926F9289
:1029C0007F928F929F92AF92BF92CF92DF92EF92BF
:1029D000FF920F931F93CF93DF93EC016C0124E0E0
:1029E000C20ED11CFC01E058FF4F0190F081E02D98
:1029F000C60109958C010E3F8FEF180708F040C003
:102A0000FE01ED57FF4FF0804E0192E8890E911CB8
:102A1000F401E080B2978081813009F44FC008F45E
:102A200043C0823009F454C0833009F45BC0FE0116
:102A3000EA5AFF4FE0823196F08237978081918188
:102A400047960F3F110511F008F0E7C0B496013624
:102A5000110530F40134110538F0FE01EE58FF4F36
:102A600020813181820F931F9C012F5F3F4FF9011D
:102A70004491411141C0612CF4018081680E608253
:102A800081E090E0DF91CF911F910F91FF90EF9047
:102A9000DF90CF90BF90AF909F908F907F906F907E
:102AA0005F904F903F900895FE01EE5AFF4F0190C6
:102AB000F081E02DC6010995F80EB9CFFE01EE5A5E
:102AC000FF4F0190F081E02DC6010995E81AAFCFC4
:102AD000FE01EE5AFF4F0190F081E02DC6010995ED
:102AE000F81AA5CFFE01EE5AFF4F0190F081E02DBC
:102AF000C6010995E80E9BCFFC01449140171106D1
:102B000009F086C00296009709F4B5CF7E01F4E57E
:102B1000EF0EF11CF701918380831086719660811E
:102B2000C7010E94B10DF701868372966081C701CB
:102B30000E94B10D782EF70187835E01FEE7AF0E8C
:102B4000B11CF5019081F701928781E0911180E03D
:102B5000F7018387FE01E959FF4F5080652DC701BA
:102B60000E94B10D482EFE01E859FF4F1081612FE0
:102B7000C7010E94B10D382EFE01E759FF4F0081B9
:102B8000602FC7010E94B10D015041E050E09A0151
:102B900001C0220F0A95EAF7682E621AF701068132
:102BA00010160CF069CF5A94CA0101C0880F5A94CC
:102BB000EAF7481A5484370C115001C0440F1A9593
:102BC000EAF7F42FF3193F2E252D4F2F642DF7012F
:102BD00082810E943E0D182FF7018283252D432DFF
:102BE000642D83810E944B0DF7018383F1E05F1612
:102BF00009F479C05F1608F43FC022E0521609F4C8
:102C000078C093E0591609F47FC0082F212F38C0EF
:102C1000F9012491820F911D27CFFE01EA58FF4F41
:102C2000A080B180A80EB91E750160E0C7010E94A6
:102C3000DC0DA80EB91E62E0C7010E94DC0DF4E0B5
:102C4000EF0EF11C8017910780F3F501849190E05D
:102C5000982F88273196E4918E2B009709F40BCF9B
:102C60000817190719F4C50103964DCFF5013296DF
:102C7000E491AE0EB11CE9CF202F210F082F070DD4
:102C8000482F612FC6010E941F0C882309F4F4CE3F
:102C9000F701148215828E010D591F4FCC59DF4F59
:102CA000F8016081C7010E94B10D482E6881C701FB
:102CB0000E94B10D582E40E0642DC6010E94580DAF
:102CC00041E0652DC6010E94580D61E0C7010E94D8
:102CD000B10D8111F0CFF701858187150CF3828545
:102CE000F5018083C9CE571821E0210F080F150D7B
:102CF000C7CF91E0392F301B21E0210F971901E058
:102D0000080F890F130FBCCF212F270D982F901B71
:102D100001E0080F81E0890FB3CF089590E080E0D3
:102D20000895FB0101900020E9F73197AF01461BA0
:102D3000570BDC01ED91FC910280F381E02D0994A9
:102D400062EE71E089E994E00E9491160C94EC0522
:102D500067EE71E089E994E00E9491160C94EC050D
:102D60006CEE71E089E994E00E9491160C94EC05F8
:102D700061EF71E089E994E00E9491160C94EC05F2
:102D800066EF71E089E994E00E9491160C94EC05DD
:102D90006BEF71E089E994E00E9491160C94EC05C8
:102DA00060E072E089E994E00E9491160C94EC05D1
:102DB00065E072E089E994E00E9491160C94EC05BC
:102DC0006AE072E089E994E00E9491160C94EC05A7
:102DD0006FE072E089E994E00E9491160C94EC0592
:102DE00064E172E089E994E00E9491160C94EC058C
:102DF00069E172E089E994E00E9491160C94EC0577
:102E00008F929F92AF92BF920F931F93CF93DF93B6
:102E1000CDB7DEB7A1970FB6F894DEBF0FBECDBF1A
:102E200019A2423008F44AE08E010F5D1F4F842E34
:102E3000912CB12CA12CA50194010E94C12BE62F4D
:102E4000B901CA01EA3044F5E05DD801EE938D0185
:102E5000232B242B252B79F790E080E0109769F045
:102E6000FD0101900020E9F73197AF014A1B5B0B90
:102E7000BD0189E994E00E941D09A1960FB6F8945E
:102E8000DEBF0FBECDBFDF91CF911F910F91BF90DD
:102E9000AF909F908F900895E95CD7CFCF92DF924B
:102EA000EF92FF92CF93DF936C01990FEE08FF082A
:102EB000F7FE19C06DE289E994E00E945307EC0126
:102EC00066277727CB016C197D098E099F094AE097
:102ED0000E9400178C0F9D1FDF91CF91FF90EF9004
:102EE000DF90CF9008954AE0C701B601DF91CF91FE
:102EF000FF90EF90DF90CF900C940017E1EFF9E096
:102F0000A481B58150962C9187AD38E0839FC00194
:102F10001124289FA001299F500D112470E060E02A
:102F200085AD96AD0C94E92BEF92FF920F931F9312
:102F3000CF93DF93E091F909F091FA0930E020E0B6
:102F400040E06AE085EF99E009958091700A81116F
:102F50000E947E1780E00E94FA050E941206C0912E
:102F6000310A8091300AC80FE091F509F091F60915
:102F70008189C81708F48BC0E091F909F091FA092A
:102F800030E020E040E060E185EF99E0099580E0E5
:102F90000E94FA05E091F909F091FA0930E020E089
:102FA00040E06BE085EF99E009958EE89BE0909317
:102FB000720A8093710A8091410A9091420A835665
:102FC000944009F06BC000915C0A002E000C110BBC
:102FD0001093400200933F02C0915B0A0C2E000C3C
:102FE000DD0BD0933E02C0933D028091380A282F1A
:102FF00030E0C901B8010E94AD2B7B016C30710536
:103000001CF04CE0E42EF12CF092FF03E092FE0362
:103010008091370AE82FF0E0CF01BE010E94AD2B6E
:103020006032710514F060E270E0709309046093FF
:1030300008040E9DC0010F9D900D1E9D900D112442
:10304000A901481B590BCA0157FD01969595879513
:1030500090933C0280933B02C69FC001C79F900D96
:10306000D69F900D11249F01281B390BC90137FDF4
:1030700001969595879590933A0280933902DF9156
:10308000CF911F910F91FF90EF900C94A10E809122
:10309000700A81110E947E178C2F5DCFE3E6F4E069
:1030A000F093420AE093410AE491E093520AE4E685
:1030B000F4E0E491E093530AE5E6F4E0E491E09370
:1030C000540AE6E6F4E0E491E093550AE7E6F4E01A
:1030D000E491E093560AE8E6F4E0E491E093570ABD
:1030E000E9E6F4E0E491E093580AEAE6F4E0E491DA
:1030F000E093590AEBE6F4E0E491E0935A0AECE637
:10310000F4E0E491E0935B0AEDE6F4E0E491E0930F
:103110005C0AEEE6F4E0E491E0935D0AEFE6F4E0A9
:10312000E491E0935E0AE0E7F4E0E491E0935F0A63
:10313000E1E7F4E0E491E093600AE2E7F4E0E4918F
:10314000E093610AE3E7F4E0E491E093620A61E16D
:1031500083E694E00E94DC0D9093640A8093630AF6
:1031600063E183E694E00E94DC0D9093660A80930D
:10317000650A65E183E694E00E94DC0D9093680A9D
:103180008093670A8091410A9091420A892B09F441
:103190001ACF80915F0A80936B0A4091600A409336
:1031A0006C0A90916A0A992309F40DCF913071F459
:1031B0009091610A891714F490936B0A8091620AC6
:1031C00084170CF000CF80936C0AFDCE30915C0A1E
:1031D00020915E0A082E000C990B632F032E000C21
:1031E000770B620F711D27FD7A95861797071CF4E0
:1031F000320F30936B0A24170CF0E5CE20936C0A43
:10320000E2CE3F924F925F926F927F928F929F9207
:10321000AF92BF92CF92DF92EF92FF920F931F93E4
:10322000CF93DF9320910C0430910D04215031098C
:103230004091080450910904249FC001259F900DDE
:10324000349F900D112420910A0430910B042150D9
:103250003109820F931FFC0197FD379663E0F595C6
:10326000E7956A95E1F7E25BFD4F68E070E00E9448
:10327000AD2B21E030E001C0220F8A95EAF7808172
:10328000822B80830E94A20928EE33E040E050E0C8
:103290000E94C12B4B015C01F12CE12C78E0472E00
:1032A000512C66246394712C3324339467018FEF7F
:1032B000C81AD80A40910804509109044C155D05BC
:1032C0000CF47BC001E010E08091080490910904A7
:1032D0002091FE033091FF03201731070CF46BC0DF
:1032E000980121503109289FE001299FD00D389F76
:1032F000D00D1124CE0DDF1DCE01B2010E94AD2BE9
:103300009E01D7FF02C0295F3F4F53E035952795B7
:103310005A95E1F7F901E25BFD4F408150E09301DE
:10332000082E02C0220F331F0A94E2F7242335230C
:1033300002C0359527958A95E2F7232BC9F1A3ECB6
:103340008A16A1E09A06A104B10478F080910A04DB
:1033500090910B048C159D0541F481E020910C04A3
:1033600030910D042017310709F080E020913F02D1
:1033700090913B02209F900D112430913D022091AD
:1033800039023E9D200D11242093730A9093740AF4
:1033900083250E94F705C258DD4F6881611101C085
:1033A00060E281EF99E00E94DC1481E00E94F70561
:1033B0000F5F1F4F89CF760179CFEEE4F2E080E313
:1033C000DF011D928A95E9F720910C0430910D04DC
:1033D00021503109249FC001259F900D349F900DED
:1033E000112420910A0430910B0421503109820FDD
:1033F000931F9C0197FF02C0295F3F4F43E0359523
:1034000027954A95E1F7F901E25BFD4F68E070E02E
:103410000E94AD2B91E001C0990F8A95EAF7908345
:10342000DF91CF911F910F91FF90EF90DF90CF90A0
:10343000BF90AF909F908F907F906F905F904F90D4
:103440003F900895BC0120910804309109048091B7
:103450000C0490910D040197829FA001839F500D51
:10346000929F500D112480910A0490910B040197B2
:10347000480F591F8091FE039091FF03289FF00190
:10348000299FF00D389FF00D112430E020E091E0ED
:103490002E173F07D4F46115710531F061307105C5
:1034A00059F0992331F00CC091E02417350744F40A
:1034B00090E02F5F3F4FECCF91E024173507C4F722
:1034C000D901A258BD4F1C92F4CF6230710554F05F
:1034D00081E090E090930B0480930A0490930D0494
:1034E00080930C040C9401190F931F93CF93DF93D7
:1034F000EC01683109F46EC058F46431F9F0F90157
:10350000673181F080E0DF91CF911F910F91089595
:10351000693109F49CC06032A9F76AE4CE010E94C7
:10352000090A56C0442309F453C081918EBD00009E
:103530000DB407FEFDCF8EB54150F4CFE881F9817F
:103540008C859D85AE85BF85892B8A2B8B2B41F47D
:1035500080859185A285B3858C879D87AE87BF873F
:10356000418169E4CE010E94090ACFB7F8948091A5
:103570000E04811127C0E2EAF3E08491E1ECF3E06C
:103580009491E82FF0E0EE0FFF1FE959FC4FA59151
:10359000B491EC91E92321F461E081E10E945B08A0
:1035A00061E081E10E9489088CB580618CBD8CB599
:1035B00080648CBD61E08FE00E94890861E080E159
:1035C0000E94890880910E048F5F80930E04CFBF04
:1035D00081E099CFE881F981E485E15090E0E33022
:1035E00020F4F0E0E25FFE4F90810C851D852E8572
:1035F0003F8540E052E16AE770E080E0041715077C
:103600002607370740F476956795579547958F5F5E
:103610008630A1F787E09C709065282F2695922B25
:10362000809581709CBD8DBDE881F981408169E400
:10363000CE010E94090AA881B981EA85FB8530E0A4
:1036400020E012964C916CE2CE010995C1CFA88181
:10365000B981EA85FB8530E020E013964C916CE25D
:103660000995E881F981418169E458CF2F923F9211
:103670004F925F926F927F928F929F92AF92BF9282
:10368000CF92DF92EF92FF920F931F93CF93DF932E
:1036900000D000D000D0CDB7DEB72C010E94A20927
:1036A0004B010E94011980914B02882309F449C003
:1036B00080914A028E3109F42DC108F06DC0843129
:1036C00079F1853109F4F5C08A30D9F58091FE038E
:1036D0009091FF0397FD01969595879521E0409184
:1036E0000C0450910D04841795070CF020E02093F2
:1036F0004902109248021092470284E180934A02E4
:10370000109246021092450280E090E0A0E2B1E4FF
:103710008093410290934202A0934302B0934402EB
:103720000E94E7118091470290914802449690933D
:10373000480280934702853691051CF085E180930D
:103740004A0210E08091300A181708F0CAC1E091CF
:10375000F509F091F609918989131CC0208980919F
:103760002E0A90912F0A3091320A139F800D911DDD
:1037700011241C821D832B839A838983E091F9098C
:10378000F091FA099E012F5F3F4F41E06FE085EF16
:1037900099E009951F5FD6CF893271F0823309F421
:1037A00057C1883271F684E690E090934802809386
:1037B000470289E280934A020E9404120E94E711A4
:1037C00080914702909148024497909348028093D9
:1037D0004702181619061CF082E380934A02E09013
:1037E0000804F0900904309149028091FE03909101
:1037F000FF0370E060E0311103C0BC01615071094A
:103800006E9DA0016F9D500D7E9D500D112402975D
:10381000332311F081E090E08E9D10018F9D300CDC
:103820009E9D300C11249A0101E010E0B8E0CB2EEF
:10383000D12C66246394712C241A350AE016F10603
:103840000CF47FCFF90137FD3796A3E0F595E795A6
:10385000AA95E1F7E25BFD4FC901B6010E94AD2BCD
:10386000A30102C0440F551F8A95E2F7CA01908157
:10387000892B8083C101820F931FFC0197FD37962E
:1038800073E0F595E7957A95E1F7E25BFD4FB601B8
:103890000E94AD2BA30102C0440F551F8A95E2F789
:1038A000CA019081892B80830F5F1F4F2F5F3F4F8D
:1038B000C5CF89E791E1909337098093360980E578
:1038C00091E190933D0980933C0921EE31E13093E1
:1038D00041092093400921EA3DE1309358092093A2
:1038E000570921E934E130935E0920935D0927E50A
:1038F00031E1309379092093780990937F0980937F
:103900007E0984EE91E190938309809382098EE190
:1039100080934A026091370A8091490281118FC0D9
:103920008091380A825090913F02891B49E00E94A1
:103930001B0DF12CE12C0CEF1FEF96E0C92E8091AE
:103940004902D0903F02D394811104C0D090380A2C
:10395000DA94DA9480913D0290913E02E89EB001A3
:10396000E99E700DF89E700D1124072E000C880B37
:10397000990B0E940D2B20914102309142024091FF
:103980004302509144020E94FE290E94DC2A609367
:10399000730AD092740A81E00115110509F080E0E4
:1039A0000E94F7058091450290914602800F911F79
:1039B00097FF47C0865A9F4FC89EB001C99E700DA1
:1039C00011246C5F7E4F46E050E0CE0101960E94CC
:1039D000E529BE016F5F7F4F81EF99E00E9491164C
:1039E00081E00E94F7050F5F1F4F24E0E20EF11CFB
:1039F0000530110509F0A3CFC0904102D0904202DA
:103A0000E0904302F0904402A701960160E070E06C
:103A100080E490E40E94FD2920E030E040EA50E498
:103A20000E946A2AA70196010E94FE296093410222
:103A300070934202809343029093440282CE80E0CE
:103A400075CF8A3591050CF4B7CF8A559109B4CF5B
:103A50000E94041210924B020E94961400910804D6
:103A600010910904809149028823A9F190E080E037
:103A7000809F6001819FD00C909FD00C112421E089
:103A800030E051E0C51AD10858E0E52EF12C66244B
:103A90006394712C021713070CF453CEC601820FE6
:103AA000931FFC0197FD379643E0F595E7954A95FE
:103AB000E1F7E25BFD4FB7010E94AD2BA30102C00D
:103AC000440F551F8A95E2F7CA019081892B8083A4
:103AD0002F5F3F4FDFCF8091FE039091FF0301974F
:103AE000C7CF0E94A2096B010E94A20950E1850E76
:103AF000911C8C189D08092C000CAA08BB08860E86
:103B0000971EA81EB91EF20182829382A482B582FA
:103B100026960FB6F894DEBF0FBECDBFDF91CF91D2
:103B20001F910F91FF90EF90DF90CF90BF90AF90DB
:103B30009F908F907F906F905F904F903F902F90CD
:103B40000895CF93DF9300D000D000D0CDB7DEB77B
:103B5000809145029091460226E0289FB001299F5E
:103B6000700D11246C5F7E4F46E050E0CE0101964F
:103B70000E94E529BE016B5F7F4F89E994E00E94B6
:103B8000911626960FB6F894DEBF0FBECDBFDF911B
:103B9000CF9108950F931F93CF93DF930091350238
:103BA000109136022091370230913802E801CC0F93
:103BB000DD1F1216130624F48DE292E00E94C7293D
:103BC000C95DDD4F998388830F5F1F4F10933602C5
:103BD000009335021092380210923702DF91CF9194
:103BE0001F910F9108958F929F92AF92BF92CF92A3
:103BF000DF92EF92FF920F931F93CF93DF93E3ED4A
:103C0000E80FE83408F083C0C82F0E2E000CFF0B1D
:103C1000E45FF14E0C94E32B541E871E871E541E46
:103C2000541E541E541E541E541E541E541E541E04
:103C3000541E871E751E871E871E871E871E7A1EAE
:103C40008F1E8F1E8F1E8F1ED81ED81EFA1E071F96
:103C5000221F341F3F1F521F761F871E871E9C1F67
:103C6000871E871E13203720871E871E871E5B2016
:103C7000871EA420871E871E871E871E871E871EFD
:103C8000871EE52011211821871E21212E21871E44
:103C90008321871E871E871E871E871E871E871EFD
:103CA000871E871E871EC621209137023091380259
:103CB000C90101969093380280933702235D3D4FEE
:103CC000F901C083835D9D4FFC01108283EF9DE16C
:103CD000DF91CF911F910F91FF90EF90DF90CF90E8
:103CE000BF90AF909F908F90089581E090E00E94E8
:103CF000CA1DECCF81E090E00E94CA1DD0E0C0E078
:103D00008091270290912802C817D9071CF081EDF5
:103D100092E1DECF80E20E94DD102196F1CF81E0BA
:103D200090E00E94CA1D80910A0490910B042DEB33
:103D30002C0F2230B8F54FEF5FEFC43411F041E0A3
:103D400050E06091270270912802469F9001479FA2
:103D5000300D569F300D1124820F931F90930B044A
:103D600080930A0480910C0490910D042FEB2C0F8A
:103D70002230D8F44FEF5FEFC13411F041E050E052
:103D80006091270270912802469F9001479F300D55
:103D9000569F300D1124820F931F90930D04809332
:103DA0000C04B5CF30E020E0D7CF30E020E0F3CFF7
:103DB00081E090E00E94CA1D81E090E090930B04A6
:103DC00080930A0440910C0450910D0421E030E0EE
:103DD000C53411F02FEF3FEF609127027091280258
:103DE000269FC001279F900D369F900D1124840FB0
:103DF000951FD3CF81E090E00E94CA1D80912702D9
:103E00009091280290930B0480930A0480CF81E064
:103E100090E00E94CA1D8091270290912802909301
:103E20000D0480930C04809135029091360218168F
:103E300019062CF48091290290912A02E3CF81E0A7
:103E400090E0E0CF81E090E00E94CA1DD0E0C0E0A9
:103E50008091270290912802C817D9070CF057CFFC
:103E60000E94530E2196F4CF90E080E00E94CA1D7C
:103E700080912702909128020E94221A48CF90E058
:103E800080E00E94CA1D4091270250912802609153
:103E90000C0470910D0480910A0490910B040E940F
:103EA000F10E35CF81E090E00E94CA1DD0E0C0E065
:103EB0008091270290912802C817D9070CF027CFCC
:103EC00000910C0410910D046091FE037091FF03AA
:103ED00050E040E0C8010E94B90F42E050E0B80154
:103EE00090E080E00E94F10E2196E2CF81E090E028
:103EF0000E94CA1DD0E0C0E0809127029091280264
:103F0000C817D9070CF003CF6091FE037091FF032F
:103F100041E050E080910C0490910D040E94B90F93
:103F2000609102047091030442E050E090E080E070
:103F30000E94F10E2196E0CF81E090E00E94CA1D20
:103F4000D0E0C0E018E0E12EF12C01E010E040E20A
:103F50008091270290912802C817D9070CF0D7CE7C
:103F60002091080430910904C0900A04D0900B04F9
:103F70001C141D041CF0CC24C394D12C80910C047F
:103F800090910D040197829F5001839FB00C929FE6
:103F9000B00C1124C6018A0D9B1DBC0163587D4FD6
:103FA0004B012C153D0504F1C4018E579240F401DC
:103FB000518151934F01FC0197FD3796A3E0F59590
:103FC000E795AA95E1F7E25BFD4FB7010E94AD2BA3
:103FD000B80101C0660F8A95EAF78081862B80833D
:103FE000FFEFCF1ADF0ADDCFC90101978A0D9B1DB4
:103FF000FC01E258FD4F4083FC0197FD379673E0CA
:10400000F595E7957A95E1F7E25BFD4FB7010E94E0
:10401000AD2B980101C0220F8A95EAF78081822B8F
:104020008083219695CF81E090E00E94CA1DD0E068
:10403000C0E08091270290912802C817D9070CF0A0
:1040400066CE6091FE037091FF0341E050E090E086
:1040500080E00E94B90F609102047091030442E075
:1040600050E090E080E00E94F10E2196E2CF81E0E6
:1040700090E00E94CA1DD0E0C0E08091270290919C
:104080002802C817D9070CF042CE6091FE03709148
:10409000FF0350E040E090E080E00E94B90F6091A3
:1040A00000047091010442E050E090E080E00E9442
:1040B000F10E2196E2CF81E090E00E94CA1DC090EF
:1040C0002702D090280280910C0490910D04019752
:1040D0002091080430910904829FE001839FD00D54
:1040E000929FD00D112480910A0490910B04C80F67
:1040F000D91FC358DD4F30E020E050E2B52E68E014
:10410000E62EF12C01E010E02C153D050CF0FFCD62
:10411000CE018E579240B992FC0197FD379643E04D
:10412000F595E7954A95E1F7E25BFD4FB7010E94EF
:10413000AD2BA80101C0440F8A95EAF78081842B3A
:1041400080832F5F3F4FE0CF81E090E00E94CA1D47
:10415000A0912702B091280240910A0450910B04CB
:1041600070E060E0C1E0D0E06A177B072CF050936C
:104170000B0440930A04CBCD9A0121503109A901C7
:1041800012161306FCF4890107701127215031091A
:10419000FA0113E0F595E7951A95E1F7EC5FFB4F0F
:1041A000808190E0FE01002E02C0EE0FFF1F0A94F6
:1041B000E2F78E239F2302C0959587950A95E2F733
:1041C000892BE9F26F5F7F4FCFCF81E090E00E94B3
:1041D000CA1D80910C0490910D0401972091080450
:1041E00030910904829FF001839FF00D929FF00DA2
:1041F000112480910A0490910B04E80FF91FE458F0
:10420000FD4F1081D0E0C0E08091270290912802FC
:10421000C817D9070CF07BCD812F0E94DD102196A5
:10422000F3CF8AEF90E00E9469070E94EC056FCD02
:1042300081E090E00E94CA1D80912702909128029F
:10424000ACCD81E090E00E94CA1D80912702909140
:10425000280290930D0480930C04ECCD90E080E054
:104260000E94CA1D8091270290912802009759F15F
:10427000039709F04CCDE0900804F090090421E088
:1042800030E008E010E0C1E0D0E0E216F3060CF404
:104290003ECDF90183E0F695E7958A95E1F7EC5F6D
:1042A000FB4FC901B8010E94AD2BBE0102C0660FD1
:1042B000771F8A95E2F7CB018095908189238083CF
:1042C0002F5F3F4FE2CF80910A0490910B04FC01D5
:1042D00097FD379623E0F595E7952A95E1F7EC5F92
:1042E000FB4F68E070E00E94AD2B21E030E0A901B7
:1042F00002C0440F551F8A95E2F7CA01809590814C
:104300008923808304CD90E080E00E94CA1D8091C3
:10431000270290912802892B09F0F9CC83EF90E0D5
:104320000E946907F12CE12C87010F5F1F4F8091DC
:10433000FE039091FF03801791072CF1C1E0D0E0BC
:1043400080910804909109048C179D07A4F0E89EC1
:10435000F001E99EF00DF89EF00D1124EC0FFD1F09
:10436000E358FD4F6081662321F089E994E00E94C3
:1043700053072196E5CF81EF90E00E9469070E94E4
:10438000EC057801D1CF8AEE90E04DCF81E090E04E
:104390000E94CA1D809127029091280282319105C6
:1043A000D1F0439709F0B3CC8CED90E00E946907FF
:1043B0008091FE039091FF030E944E178AED90E0DA
:1043C0000E94690780910804909109040E944E1789
:1043D00088ED90E028CF85EE90E00E9469078091FB
:1043E000FE039091FF030E944E1783EE90E00E941F
:1043F000690780910804909109040E944E1781EE8C
:1044000090E011CF109236021092350210923802CD
:10441000109237020C94F31DCF93DF93EBE2F9E097
:104420004CE251E024EF31E088E290E05583448390
:104430003783268393838283B19669E0E13FF60751
:10444000A9F7D0E0C0E0BE0164557F4FCE018E5188
:104450009E4F0E94EE292596CC33D105A1F7DF911E
:10446000CF910895873309F45EC0ACF4893209F422
:1044700054C04CF4853209F44DC0883209F44AC066
:1044800081ED92E108958A3209F44AC08B32C1F776
:1044900085EC92E108958834F9F0A4F4883309F4A6
:1044A00053C0863469F781E090E090930B048093C9
:1044B0000A048091FE039091FF0390930D04809372
:1044C0000C04DECF8B3519F1833609F44EC08035EC
:1044D000B9F689EB92E1089580910A0490910B045A
:1044E000FC0197FD379623E0F595E7952A95E1F7CE
:1044F000EC5FFB4F68E070E00E94AD2B21E030E004
:1045000001C0220F8A95EAF78081822B808382E0A6
:1045100092E208958EEC92E108958BEC92E1089579
:1045200088EC92E1089580910A0490910B04A09187
:104530000C04B0910D048093DE019093DF01A093F1
:10454000E001B093E1019CCF8091DE019091DF0109
:10455000A091E001B091E10180930A0490930B04D3
:10456000A0930C04B0930D048BCF0E940C220E94E8
:10457000A10E82E090E00E94221A82CF0E940C22BB
:104580000C9496141F920F920FB60F9211242F9332
:104590003F934F935F936F937F938F939F93AF93CB
:1045A000BF93CF93EF93FF93C091E1008091E1001F
:1045B000837F8093E100C3FF0FC01092E90081E088
:1045C0008093EB001092EC0082E38093ED00109258
:1045D000980488E08093F000C2FF1AC00E94EC05A6
:1045E00080918804882341F08091880481508093D1
:1045F0008804811101C05D9A80919704882341F05D
:1046000080919704815080939704811101C0289A6A
:10461000C4FF23C08091E2008E7E81608093E2001F
:104620008091E1008F7E8093E100809189048E7EED
:10463000806180938904FF91EF91CF91BF91AF91F9
:104640009F918F917F916F915F914F913F912F91AA
:104650000F900FBE0F901F901895C0FFECCF809168
:10466000E2008E7E80618093E2008091E1008E7E88
:104670008093E100809189048E7E8160DACF1F9261
:104680000F920FB60F921124CF92DF92EF92FF920A
:104690000F931F932F933F934F935F936F937F934A
:1046A0008F939F93AF93BF93EF93FF93CF93DF933A
:1046B000CDB7DEB76C97DEBFCDBF1092E900809119
:1046C000E80083FF25C068E0CE0145960E944607BA
:1046D00082EF8093E8008D8987FF39C09091E800D0
:1046E00090FFFCCF982F907609F034C19E894F89B6
:1046F000588D2F89F88C911131C0803861F58091E7
:104700008A048093F1001092F1008EEF8093E8000C
:104710006C960FB6F894DEBF0FBECDBFDF91CF9180
:10472000FF91EF91BF91AF919F918F917F916F9189
:104730005F914F913F912F911F910F91FF90EF90BB
:10474000DF90CF900F900FBE0F901F9018959EEFA7
:104750009093E800C7CF1092F100D5CF913059F473
:104760008111D3CF4130510581F680918A048D7F2C
:1047700080938A04CACF933049F48111C6CF413067
:10478000510519F680918A048260F2CF953041F488
:104790008091E80080FFFCCF20682093E300B5CF34
:1047A000963009F0A9C00B8D1C8D22E01092E90013
:1047B0001092860410928504F2122EC01092840486
:1047C000109283040E9415071F8299E09983FA8250
:1047D00091E09E8390EA98879AEF998720918504CB
:1047E00030918604275F3F4F3C832B838D8310924B
:1047F000E9001092860410928504109384040093BB
:10480000830449E050E0BE016F5F7F4F80E00E946B
:10481000EF060E94150779CF109384040093830458
:104820000E94AD06DC0112960D911C910115110537
:1048300009F451C1D801ED91FC910480F581E02D7E
:10484000BE016B5E7F4FC8010995009709F03EC11C
:10485000F80100851185EACFF3E0FF120EC08F89C1
:10486000882309F440C0823061F440E860E182E5C9
:1048700094E00E94D626811148CF81E28093EB001C
:1048800047CF813029F440E86BE086E494E0F1CF33
:10489000833099F70E94AD06DC011296ED90FC90F2
:1048A0008E010F5F1F4F6801E114F10479F0D70109
:1048B000ED91FC910680F781E02DB801C7010995C3
:1048C000080F111DF701E084F184EECFD8011C928E
:1048D000F60101900020E9F73197BF016C197D09BD
:1048E00040E0C601C6CF60E374E0FB01449150E0B4
:1048F00080E80E94EF0609CF973009F4BECF9830C8
:1049000021F481E08093F10000CF993009F0FDCED1
:10491000837009F0B2CFE7E7F1E081E031E096E3A0
:104920002191222371F08093E9003093EB00DF01A5
:1049300011972C912093EC009093ED008F5F8730BE
:1049400079F78EE78093EA001092EA008F898093CE
:104950009804DBCE8B8D9C8D1092E900109286041A
:10496000109285049093840480938304898D81112F
:1049700092C08E899D89913A49F4813209F07DCFA8
:1049800047E050E066E071E080E0B3CF913209F09B
:1049900074CF833269F48F89988DB0E0A0E0809362
:1049A000020190930301A0930401B0930501ADCEE1
:1049B000803269F48091E80082FFFCCF67E086E0F6
:1049C00091E00E9446078BEF8093E8009ECE8232F2
:1049D00009F09BCE8F8980930D01EEEFFFE7859163
:1049E00094918B3F9C4D51F1E0E0F8E080910601FD
:1049F00090910701A0910801B0910901803B94407A
:104A0000A105B105F1F480910D0180FD1AC0EE3FC2
:104A10008AE0F80789F587E797E79183808380919B
:104A200060008093870488E19BE00FB6F894A89516
:104A3000809360000FBE9093600067CEEEEFFAE0C7
:104A4000D5CF808191818737974709F05ECEA895B1
:104A500080916000886180936000809187048093DA
:104A60006000EE3F2AE0F20789F08091FE0A909103
:104A7000FF0A9183808349CE80819181873798078F
:104A800051F29093FF0A8093FE0AC5CF1092FF0A5D
:104A90001092FE0A3ACE0E94AD06DC0112960D91EC
:104AA0001C910115110509F4E8CED801ED91FC9196
:104AB0000190F081E02DBE016B5E7F4FC80109952A
:104AC000811123CEF80100851185EBCF1816190648
:104AD0000CF41BCED2CEF1E0FF12BECE64E374E044
:104AE00004CF1F920F920FB60F9211242F933F9372
:104AF0008F939F93AF93BF9380917B0490917C049D
:104B0000A0917D04B0917E0430917A0423E0230FBC
:104B10002D3758F50196A11DB11D20937A0480937D
:104B20007B0490937C04A0937D04B0937E048091D9
:104B30007F0490918004A0918104B0918204019639
:104B4000A11DB11D80937F0490938004A0938104E4
:104B5000B0938204BF91AF919F918F913F912F911C
:104B60000F900FBE0F901F90189526E8230F029606
:104B7000A11DB11DD2CF1F920F920FB60F9211241B
:104B80002F933F934F935F936F937F938F939F9355
:104B9000AF93BF93EF93FF938091B900887F8036E6
:104BA00009F44AC0F0F5883209F4A5C018F580313F
:104BB00009F499C0B8F4882309F4F5C0883009F4E1
:104BC00092C0FF91EF91BF91AF919F918F917F9193
:104BD0006F915F914F913F912F910F900FBE0F906A
:104BE0001F901895883109F486C0803251F7809360
:104BF000530414C0803409F49BC040F48033B9F3EB
:104C00008833F9F68093530485ECAEC0803509F4FF
:104C100083C0883509F494C0883499F60E94AE099F
:104C2000D0CF883909F48AC038F5883729F050F494
:104C3000883611F0803729F683E08093540410926F
:104C4000520455C0883809F479C0803919F0803889
:104C500009F0B7CF80915204803208F06FC0E09124
:104C6000520481E08E0F809352048091BB00F0E0EB
:104C7000EE5CFB4F80833BC0803B39F0D0F4803A40
:104C800009F477C0883A09F09CCF84E080935404FB
:104C90001092310410923004F0E0E0E00995809128
:104CA000300481110FC081E0809330041092100411
:104CB00009C0803C09F4A8CF883C09F4A5CF883B03
:104CC00009F07FCFE091310481E08E0F80933104B1
:104CD000F0E0E05FFB4F80818093BB009091310456
:104CE0008091300429C0809179048093BB0085ECC9
:104CF0008093BC0066CF90917804809177049817D8
:104D000058F5E091780481E08E0F80937804F0E00C
:104D1000E95AFB4F8081E9CFE091780481E08E0F62
:104D2000809378048091BB00F0E0E95AFB4F8083C8
:104D300090917804809177049817C8F285E8D8CFCD
:104D4000E091780481E08E0F809378048091BB001D
:104D5000F0E0E95AFB4F80838091560481115ECFC9
:104D600081E08093550484EA8093BC00109254043F
:104D700028CF85EC8093BC0010925404809152049B
:104D8000803230F4E0915204F0E0EE5CFB4F108290
:104D90006091520470E082E394E0F0E0E0E0099575
:104DA000109252040ECF1092530438CFEF92FF921C
:104DB0000F931F93CF93DF93F82E192FE62E042F16
:104DC00081E0860F880F0E94C10683E00E94C10621
:104DD000CF2DD12FEC0EFD2EF11CCE15DF05B9F035
:104DE00007FF13C0FE0184910E94C106182F80E0C6
:104DF0000E94C106812321968111EFCFDF91CF91CF
:104E00001F910F91FF90EF9008958881EDCF81E081
:104E1000F5CFFC01862F22E330E03383228328E59F
:104E200032E03583248328EE33E0378326831286ED
:104E30001486138616861586108A1786128A118A9A
:104E4000148A138A168A158A108E178A60837183D2
:104E50001186108662E00C948908CF9310929C040E
:104E600010929B0488EE93E0A0E0B0E080939D0454
:104E700090939E04A0939F04B093A00481E891E0D6
:104E800090939A04809399048FEF9FEF9093A604D8
:104E90008093A5041092F4091092F3098DE795E030
:104EA0009093720A8093710A1092730A1092740A96
:104EB00010920E0A83E991E09093F2098093F10930
:104EC0001092F6091092F50910920A0A10920D0A32
:104ED0001092010A1092020A1092030A1092040A18
:104EE0008FEF80930B0A8093100AE4E1FAE08AE2E4
:104EF0009AE0CFEFC1938E179F07E1F787E89AE01A
:104F00009093FA098093F90986E59BE09093FC0958
:104F10008093FB0984E79AE19093FE098093FD0951
:104F200088EE9DE09093000A8093FF0930E020E036
:104F300040E069E085EF99E00E94870A1092420AFA
:104F40001092410A87E895E090932B0A80932A0AF1
:104F500089EE94E090932F0A80932E0A88E0809344
:104F6000300A1092310A10924E0A10926E0A81E0B5
:104F700080936F0A8093700A83EB91E090932D0ADF
:104F800080932C0A85EF99E00E94DB0B10923D0A7A
:104F900010923F0AC0933E0AC093400AE0912C0A47
:104FA000F0912D0A0280F381E02D85EF99E00995BB
:104FB0008AEE95E09093440A8093430A1092510A36
:104FC0008CE080931D0A84E080931E0A86E0809323
:104FD0001F0A62E170E08BE299E00E94092767E016
:104FE00070E08CE499E00E94092765E170E08DE6AD
:104FF00099E00E94092764E170E08EE899E00E9440
:10500000092763E170E08FEA99E00E94092768E0D0
:1050100070E080ED99E00E94092780EA96E1909384
:1050200014098093130988EA96E1909316098093F6
:10503000150980EB96E1909318098093170988EB86
:1050400096E190931A098093190980EC96E1909368
:105050001C0980931B0988EC96E190931E098093AC
:105060001D0980ED96E19093200980931F0988ED3A
:1050700096E1909322098093210980EE96E1909326
:1050800024098093230988EE96E190932609809362
:10509000250980EF96E1909328098093270988EFEE
:1050A00096E190932A09809329098FEA91E09093E1
:1050B0000C0980930B091092FE081092FD0887EAF4
:1050C00091E09093F2088093F1088FE991E090933A
:1050D000EA088093E908CF910895789484B58260B6
:1050E00084BD84B5816084BD85B5826085BD85B58C
:1050F000816085BD80916E00816080936E0010920A
:105100008100809181008260809381008091810084
:105110008160809381008091800081608093800015
:1051200080919100826080939100809191008160D4
:105130008093910080919000816080939000809195
:10514000C10084608093C1008091C100826080931F
:10515000C1008091C10081608093C1008091C30033
:1051600081608093C3008091C00082608093C00002
:105170008091C20081608093C20080917A00846037
:1051800080937A0080917A00826080937A00809187
:105190007A00816080937A0080917A0080688093A1
:1051A0007A001092980410928A04109289048091D7
:1051B000D70081608093D70080EA8093D80089B5BA
:1051C000806189BD89B5826089BD09B400FEFDCFCB
:1051D00061E070E080E090E00E94EA088091D800F1
:1051E0008F7C80618093D8008091E000807F8093E5
:1051F000E0008091E1008E7E8093E1008DE080935D
:10520000E200559A209A8FEF9FEF9093A604809327
:10521000A5042DEF38E08091FD089091FE08FC0177
:10522000EE0FFF1FE150F74F41EF58E051834083ED
:105230003093F8082093F7081092F3081092F408BE
:105240001092F5081092F608FC01EE0FFF1FEF5FB9
:10525000F64F4BE059E0518340833093120920937D
:10526000110910920D0910920E0910920F09109257
:1052700010090396FC01EE0FFF1FE350F74F49EEB4
:1052800058E0518340833093F0082093EF08109248
:10529000EB081092EC081092ED081092EE08909333
:1052A000FE088093FD08E901F12CE12C2296809103
:1052B000FD089091FE08E816F9066CF48881998142
:1052C000DC01ED91FC910190F081E02D0995BFEF9B
:1052D000EB1AFB0AEBCF0E94A209CFEFD8E0F12C2A
:1052E000E12C2091FD083091FE08E216F306BCF493
:1052F00089919991FC014281538164817581841661
:105300009506A606B70638F00190F081E02D0280E0
:10531000F381E02D0995FFEFEF1AFF0AE2CFE0914C
:10532000FF08F0910009C280D380E480F580EDEFA2
:10533000F8E090E080E03296821793078CF4A08129
:10534000B18112964D915D916D917C9115974C159F
:105350005D056E057F0510F46A017B010196EBCFB8
:105360000E94A2094B015C018C149D04AE04BF0491
:1053700008F0B3CFC701B601681979098A099B09FA
:105380000E94EA080E94A2094B015C01A6CFFC0121
:1053900088279927E89421912032E9F3293010F0E9
:1053A0002E30C8F32B3241F02D3239F4689404C00A
:1053B0000E94F529820F911D219120532A30C0F3BC
:1053C0001EF4909581959F4F0895FB01DC0102C06A
:1053D00005900D9241505040D8F70895FB01DC0133
:1053E00005900D920020E1F708957AE0979F902DA7
:1053F000879F802D910D112408955058BB27AA270F
:105400000E94152A0C945F2B0E94512B38F00E94A9
:10541000582B20F039F49F3F19F426F40C944E2BAE
:105420000EF4E095E7FB0C94482BE92F0E94702BBB
:1054300058F3BA17620773078407950720F079F4C9
:10544000A6F50C94922B0EF4E0950B2EBA2FA02DFE
:105450000B01B90190010C01CA01A0011124FF2721
:10546000591B99F0593F50F4503E68F11A16F0401C
:10547000A22F232F342F4427585FF3CF469537951B
:105480002795A795F0405395C9F77EF41F16BA0BE0
:10549000620B730B840BBAF09150A1F0FF0FBB1F8E
:1054A000661F771F881FC2F70EC0BA0F621F731FD7
:1054B000841F48F4879577956795B795F7959E3F34
:1054C00008F0B0CF9395880F08F09927EE0F9795C5
:1054D000879508950E947E2A0C945F2B0E94582B7A
:1054E00058F00E94512B40F029F45F3F29F00C94B2
:1054F000482B51110C94932B0C944E2B0E94702B23
:1055000068F39923B1F3552391F3951B550BBB27F2
:10551000AA2762177307840738F09F5F5F4F220F37
:10552000331F441FAA1FA9F335D00E2E3AF0E0E82E
:1055300032D091505040E695001CCAF72BD0FE2F78
:1055400029D0660F771F881FBB1F2617370748070C
:10555000AB07B0E809F0BB0B802DBF01FF279358C4
:105560005F4F3AF09E3F510578F00C94482B0C9415
:10557000932B5F3FE4F3983ED4F386957795679538
:10558000B795F7959F5FC9F7880F911D96958795F9
:1055900097F90895E1E0660F771F881FBB1F621718
:1055A00073078407BA0720F0621B730B840BBA0BD6
:1055B000EE1F88F7E09508950E94782B88F09F579A
:1055C00098F0B92F9927B751B0F0E1F0660F771F27
:1055D000881F991F1AF0BA95C9F714C0B13091F01D
:1055E0000E94922BB1E008950C94922B672F782F94
:1055F0008827B85F39F0B93FCCF3869577956795E2
:10560000B395D9F73EF490958095709561957F4F4D
:105610008F4F9F4F0895E89409C097FB3EF49095F3
:105620008095709561957F4F8F4F9F4F9923A9F07B
:10563000F92F96E9BB279395F6958795779567950A
:10564000B795F111F8CFFAF4BB0F11F460FF1BC04E
:105650006F5F7F4F8F4F9F4F16C0882311F096E9E1
:1056600011C0772321F09EE8872F762F05C066238F
:1056700071F096E8862F70E060E02AF09A95660F48
:10568000771F881FDAF7880F9695879597F9089501
:1056900097F99F6780E870E060E008959FEF80ECE5
:1056A000089500240A941616170618060906089588
:1056B00000240A9412161306140605060895092EEE
:1056C0000394000C11F4882352F0BB0F40F4BF2B5D
:1056D00011F460FF04C06F5F7F4F8F4F9F4F08959D
:1056E00057FD9058440F551F59F05F3F71F0479593
:1056F000880F97FB991F61F09F3F79F08795089578
:10570000121613061406551FF2CF4695F1DF08C096
:10571000161617061806991FF1CF869571056105B3
:1057200008940895E894BB2766277727CB0197F95B
:105730000895AA1BBB1B51E107C0AA1FBB1FA617D8
:10574000B70710F0A61BB70B881F991F5A95A9F72A
:1057500080959095BC01CD01089597FB072E16F416
:10576000009407D077FD09D00E94992B07FC05D043
:105770003EF4909581959F4F0895709561957F4F68
:105780000895A1E21A2EAA1BBB1BFD010DC0AA1F82
:10579000BB1FEE1FFF1FA217B307E407F50720F09A
:1057A000A21BB30BE40BF50B661F771F881F991F15
:1057B0001A9469F760957095809590959B01AC015E
:1057C000BD01CF010895EE0FFF1F0590F491E02D6C
:1057D0000994DC0101C06D9341505040E0F70895F9
:0457E000F894FFCF6B
:1057E400D112FFFFFFFF00E10000000000000408E9
:1057F4000C1815A015C019FF1815A115C819FF1804
:1058040015AE19FF1815AF19FF1815AE15D516806A
:1058140015A8163F15D316001540158D161415201E
:10582400160015A115C815DA1612158116CF15D94B
:1058340016F115DB1640152E15A415A619FF000147
:10584400140A6464323200127A00000428961008A4
:1058540000008000400000C18081000000000000C2
:105864000053071D0986078407CC078A07A8070089
:10587400000000DC14B4148E168D160000000038ED
:10588400111E11000000009417361B00000000BE1A
:0A589400226913DB0B460CCF0B005A
:00000001FF
