:100000000C9453050C947B050C947B050C947B0598
:100010000C947B050C947B050C947B050C947B0560
:100020000C947B050C947B050C9422200C949F204F
:100030000C947B050C947B050C947B050C947B0540
:100040000C947B050C947B050C947B050C947B0530
:100050000C947B050C947B050C947B050C94D122AD
:100060000C947B050C947B050C947B050C947B0510
:100070000C947B050C947B050C947B050C947B0500
:100080000C947B050C947B050C947B050C947B05F0
:100090000C941B230C947B050C947B050C947B0522
:1000A0000C947B050C947B050C947B051B5B410039
:1000B000001B5B4300000A000000001B0000000062
:1000C0001B5B4200001B5B440000545479474F20E7
:1000D000762E302E302E310074003B001B5B393BF6
:1000E0000074003B001B5B383B001B5B3230317EF1
:1000F000000A001B5B3230307E001B5B3F36303B1A
:10010000323B630041000000410042000000420019
:10011000430000004300440000004400450000008C
:100120004500460000004600470000004700480028
:10013000000048004900000049004A0000004A0051
:100140004B0000004B004C0000004C004D00000034
:100150004D004E0000004E004F0000004F005000C8
:1001600000005000510000005100520000005200F9
:1001700053000000530054000000540055000000DC
:100180005500560000005600570000005700580068
:10019000000058005900000059005A0000005A00A1
:1001A0006100000061006200000062006300000066
:1001B00063006400000064006500000065006600E4
:1001C000000066006700000067006800000068002B
:1001D0006900000069006A0000006A006B0000000E
:1001E0006B006C0000006C006D0000006D006E0084
:1001F00000006E006F0000006F00700000007000D3
:1002000071000000710072000000720073000000B5
:100210007300740000007400750000007500760023
:10022000000076007700000077007800000078007A
:100230007900000079007A0000007A005B0000007D
:100240005B005D0000005D00280000002800290020
:10025000000029002E0000002E002C0000002C00C1
:100260003A0000003A003B0000003B002B00000079
:100270002B002D0000002D002A0000002A002F0076
:1002800000002F00210000002100220000002200B9
:1002900023000000230025000000250026000000A8
:1002A00026003F0000003F002700000027002A0032
:1002B00000002A007C0000007C005F0000005F005E
:1002C0003C0000003C003E0000003E00300000000A
:1002D00030003100000031003200000032003300F5
:1002E0000000330034000000340035000000350009
:1002F00036000000360037000000370038000000EC
:100300003800390000003900455343001B005245B6
:1003100054000A0054414200090044454C007F004B
:10032000BC1B5B313B3148545479474F20762E300B
:100330002E302E3220393630306270730A565432E5
:10034000323020666F722041726475696E6F0A42A6
:100350007920496E6E6F766174696F6E4761726164
:1003600067652041530A0000000000240027002A8E
:10037000002D00300000000000250028002B002E7A
:10038000003100000000002300260029002C002F6F
:10039000000404040404030405020202020403022C
:1003A000020202060606060606040402020204040D
:1003B0000408020110408040102040804080080264
:1003C00004018040201002011080102040402000D5
:1003D00000000200090F0000030401000C000000EF
:1003E0000000000000000000000000000000080BFA
:1003F00000020202010009040000010202000005DF
:10040000240010010524010101042402060524062C
:1004100000010705810310004009040100020A00E1
:1004200000000705020240000007058302400000AB
:100430000403090412010002EF0201404123368047
:1004400000010102030141726475696E6F204C4C1A
:10045000430041726475696E6F204C656F6E617206
:10046000646F00BF0203020303010104040600FFDE
:1004700005FF05FF0106020906242006747C3600EC
:100480002108749CAC0EC4002207748CA49D062322
:100490000B748C241994645052002409749C6811C4
:1004A0009329022508748C34AAA600260A749C2875
:1004B000892A5112022707749C2C2702280774AC42
:1004C0005A63022908748C306BCA002A09748C2480
:1004D0008AA64A0A2B08749C2C9AB2182C07747CA2
:1004E0005A94012D07747C6487012E06747C5A0C83
:1004F0002F0874AC2CAAE5003009749C2849965248
:100500000C3108749C482BAD003209749C28C9A298
:1005100068053308748C2D0A13193408748CA4658B
:10052000AB023508748C251313193609741C2593F6
:100530009228063708748C2DAAE5003809741CA58A
:10054000544964003909749C2889B444063A0774F4
:10055000DC1C8C013B0874DC1C8C32003C0774AC46
:10056000C62A003D0774CC7587003E07748CB054D2
:10057000073F08740C31CA81184007741CA5471541
:100580004109749C284996AE00420A740C2949A47A
:100590002491014309749C28A925510C4408740C2A
:1005A00029E945064508748C2593B2154608748CD4
:1005B0002593B21C4709741C254B9A5400480874B3
:1005C0008CA465E90A4908748C292BAD004A08748B
:1005D000ACAC528A014B09748CA4454A5A014C07B1
:1005E000748CAC6D054D08748C24B974054E087478
:1005F000ACA4B2B4034F08749C28E92906500974CE
:100600000C2949A42C075109749C28E9294C005253
:1006100009740C2949A4A4155308741C25ACC800FE
:100620005407748C296B065508748CA45F560056C9
:1006300008748CA49729065708748CA4E5520558B1
:1006400008748CA4A9D20A5908748CA4292B035AC3
:1006500008748C2DAAAD005B08741C29ABA9005C42
:1006600008748C2CACA5005D07740CAD49065E08BF
:10067000749C28C969005F06747CF2026007749C50
:1006800030A7016107745CA5930A6209748C4C4A17
:100690005A64006308745C250B5500640874AC4808
:1006A000E9A402650874DC28493415660874ACD2E4
:1006B00094C5006709745CA5A42512006808748CB1
:1006C0004C4A7A056908749C588B56006A0974ACC8
:1006D0001CC82A12006B09748C2C49A4A4156C0741
:1006E000740CAD69056D0874CC2459BA026E077498
:1006F0004C29E9156F0874DC28698A017009744C6B
:100700002949A42C037108745CA59396007208749F
:10071000CC2491B21C7308745C454C64007408745A
:100720009C68CAC214750774CCA42715760774CCCC
:10073000A4A718770874CCA465A902780974CC24FE
:10074000CAA22405790974CCA4494B24007A087400
:10075000CC2D8A56007B0874AC92564C007C0774F2
:100760009CAC33007D09748C3093B228037E0874EE
:100770009C44C96900A006747C3600A108749C1CC6
:10078000C8CA00A208749C68C9A618A30874AC9AC9
:10079000544901A40974CC2891942804A509748CA7
:1007A000248AA62C06A608749C2C07B218A70974E4
:1007B0001C5312698904A806748C2467A90A741C46
:1007C000255A16295100AA08741CA5A4AE00AB092D
:1007D00074DC4489921C01AC08747C64CB2100ADAC
:1007E00007747C648701AE09741C6558121D02AF42
:1007F00006748C9D01B008749C28897202B108743B
:100800009C688A5700B208740C2DCA740CB3087423
:100810000C2D0AA31CB40674AC3A11B50874CCA410
:10082000172903B608749C41597A04B706747C28CA
:1008300027B807747C421403B908749C48AB630062
:10084000BA08749C2889E215BB0974CC244A941C0C
:1008500002BC09748CAC98245B00BD09748CACA2FA
:10086000459900BE09740C2D0A135B00BF08749CE7
:100870001C884215C009748C304A92A50AC10874BC
:10088000AC9664A902C209740C2D4A92A50AC30948
:10089000741C53922C5500C409748C24AA244B1543
:1008A000C509749C2C4A92A50AC60A749C21490663
:1008B000A52202C709749C28A925510DC808748C6B
:1008C0006C91B215C90874AC6491B215CA08741C55
:1008D0006591B215CB09748C2459A46C05CC0874AD
:1008E0008C6CCAA215CD0874AC64CAA215CE08746B
:1008F0009C68CAA215CF09748C24CA4A2B00D0095F
:10090000748C29592A430AD109749C44492E5500F4
:10091000D209748C304A9A6200D30774AC96A61838
:10092000D409749C2C4A9A6200D508749C61E9141D
:1009300003D609748C24AA34C500D70974CC24AA20
:10094000E41000D809741CA5B2546400D909748C51
:10095000304A5A5600DA0774AC969615DB08749C38
:1009600038695901DC09748C244D5A5600DD08742D
:10097000AC3489B218DE09748C4C4A122907DF0B9B
:10098000749C2849A424593200E009748C30534ADD
:100990002A00E10874AC9A525201E208741C5929E9
:1009A000A900E309749C448994920AE409748C2494
:1009B000564A2A00E509749C1C504A2A00E608742D
:1009C000DC2159A211E70974DC28294A1100E80941
:1009D000748C304A124D05E90874AC96445301EA10
:1009E00009740C2D4A124D05EB09748C24AA249A23
:1009F0000AEC08748C302BAD00ED0874AC442BADC0
:100A000000EE09749C2889B26805EF08748C24D51F
:100A1000A215F009748C24CA94520CF109749C44F8
:100A200049A4A415F209748C308B922806F309743A
:100A3000AC5A94443100F409749C1C88922806F541
:100A400008748C394AA218F609748C248E922806F0
:100A5000F707749C788E01F807745CA58B0CF90974
:100A6000748C304A9A5400FA0774AC962615FB0829
:100A7000749C38695201FC09748C244D9A5400FD11
:100A80000974AC96644B2400FE0A748C2C93924437
:100A9000CA00FF0A748C244D922D910000000004BE
:100AA000FFFF00008D2411241FBECFEFDAE0DEBF70
:100AB000CDBF11E0A0E0B1E0E0E0F3E502C00590B9
:100AC0000D92AA3BB107D9F729E0AAEBB1E001C02A
:100AD0001D92A43EB207E1F715E0C3E5D5E004C0DE
:100AE0002197FE010E947129C235D107C9F70E94E2
:100AF000CD250C947E290C940000662329F06A30E1
:100B000019F0862F90E008958FEF9FEF0895CF9210
:100B1000DF92EF92FF920F931F93CF93DF93EC013D
:100B2000842F8770E1E0F0E0082E01C0EE0F0A94F8
:100B3000EAF73E2F7E019AE7E90EF11CD7019C915E
:100B400010E0923018F41E2F913029F150E0487FC8
:100B5000E9ADFAADC880D980D60150969C91949F9A
:100B60006001959FD00C11246C0D7D2D711DDF014E
:100B7000A60FB71F011115C08C91812B83278D9370
:100B80002150D1F7DF91CF911F910F91FF90EF90FE
:100B9000DF90CF90089530E0D9CF110F330F22238B
:100BA00089F39C91912B93279C938F5F87702150A1
:100BB0008111F3CF9DADA90FB11DF7019081923046
:100BC00028F4913009F031E011E0E9CF31E0E7CFCE
:100BD00080E0089580E0089583E08093E9008091AB
:100BE000F200882319F08AE38093E8000895809347
:100BF000DE090895CF93DF93C0E6D9E08093A00982
:100C0000EBADFCAD0190F081E02D84E699E0099513
:100C1000EBADFCAD0280F381E02D84E699E0DF913D
:100C2000CF910994CF92DF92EF92FF920F931F938F
:100C3000CF93DF9300D000D01F92CDB7DEB7C09026
:100C40009F090091A009E0916409F0916509D1889C
:100C5000102FF12CE12CE0916409F0916509808955
:100C600020919D0930919E091C821D838B8348E051
:100C7000849FC00111248E9DA0018F9D500D9E9DCB
:100C8000500D1124240F351F3A832983E091680900
:100C9000F09169099E012F5F3F4F41E06FE084E6CC
:100CA00099E009951F5F812F801B8C1528F48FEF29
:100CB000E81AF80A1D1578F20F900F900F900F9018
:100CC0000F90DF91CF911F910F91FF90EF90DF90E8
:100CD000CF900895FC0180910704882311F13FB75C
:100CE000F89482E08093E9002091F200822F90E056
:100CF0001816190614F481E090E0882339F028983A
:100D000044E6409306044091F1004083222339F0E9
:100D10002091F200211103C02BE62093E8003FBF91
:100D200008958FEF9FEF08959B01DC011896ED91D8
:100D3000FC9141E067E109942FB7F89483E0809338
:100D4000E9009091E800892F807295FF04C090918E
:100D5000F20080E4891B2FBF08958091FE0381116A
:100D60000DC082E08093FA0384E08093FB0310922D
:100D7000FD031092FC0381E08093FE038AEF93E071
:100D800008954091F4035091F5032091F2033091BE
:100D9000F30342175307B4F49091E8009570E1F320
:100DA0009091E80092FD19C08093F1008091F403C6
:100DB0009091F50301968F739927892B19F48EEF83
:100DC0008093E8008091F4039091F503019690934D
:100DD000F5038093F40381E0089580E00895DF92A5
:100DE000EF92FF920F931F93CF93DF93D82E8A0138
:100DF000EB017B01E40EF51ECE15DF0559F0D7FEA1
:100E000012C0FE0184910E94C10621968111F4CF87
:100E10000FEF1FEFC801DF91CF911F910F91FF904E
:100E2000EF90DF9008958881EECF0F931F93CF93BB
:100E3000DF931F92CDB7DEB782E0898342E450E0B2
:100E40006EEE73E080E80E94EF060E94AD06DC01C2
:100E500012960D911C910115110589F0D801ED91A3
:100E6000FC910280F381E02DBE016F5F7F4FC801CE
:100E7000099597FD04C0F80100851185ECCF8981A3
:100E80000F90DF91CF911F910F910895615030F035
:100E90002091F100FC0120830196F8CF289884E688
:100EA000809306040895CF93DF931F92CDB7DEB7EA
:100EB0006983DC01ED91FC910280F381E02D41E03A
:100EC00050E0BE016F5F7F4F09950F90DF91CF918A
:100ED00008950F931F93CF93DF938C01D0E0C0E070
:100EE000F801EC0FFD1F6491662341F088E094E067
:100EF0000E945307892B11F02196F2CFCE01DF918A
:100F0000CF911F910F9108950C94EC050E949C06BF
:100F100090E00895CF93DF931F92CDB7DEB7FC0129
:100F20008485958597FD08C02FEF3FEF358724878F
:100F30000F90DF91CF910895CE0101960E946A062D
:100F4000019719F4898190E0F3CF8FEF9FEFF0CFF5
:100F50000F931F93CF93DF931F92CDB7DEB78C0112
:100F6000FC018485958597FF0BC0CE0101960E94F8
:100F70006A06019771F4898190E0F801958784876A
:100F8000F801848595850F90DF91CF911F910F9186
:100F900008958FEF9FEFF1CFFC018485958597FD34
:100FA0000BC09FB7F89482E08093E9008091F20033
:100FB0009FBF90E0019608959FB7F89482E08093D8
:100FC000E9008091F2009FBF90E0089581508F303A
:100FD00008F047C0E82FF0E0E051F84F0C94712979
:100FE0000D081108FF070508090831083108310804
:100FF00014081A081E082208280831082C088091B5
:1010000080008F77809380000895809180008F7D8D
:10101000F9CF80918000877FF5CF84B58F7784BD2D
:10102000089584B58F7DFBCF809190008F7780935A
:1010300090000895809190008F7DF9CF809190006D
:10104000877FF5CF8091C0008F778093C00008958F
:101050008091C0008F7DF9CF8091C200877F8093FF
:10106000C2000895CF93DF93282F30E0F901E153B8
:10107000FC4F8491F901E055FC4FD491F901EF56F2
:10108000FC4FC491CC23A1F081110E94E607EC2F04
:10109000F0E0EE0FFF1FED57FC4FA591B491EC91DE
:1010A000ED2381E090E009F480E0DF91CF91089595
:1010B00080E090E0FACF1F93CF93DF93282F30E0AA
:1010C000F901E153FC4F8491F901E055FC4FD491B3
:1010D000F901EF56FC4FC491CC23A9F0162F8111D2
:1010E0000E94E607EC2FF0E0EE0FFF1FEB58FC4FDD
:1010F000A591B4918FB7F894EC91111108C0D095D7
:10110000DE23DC938FBFDF91CF911F910895DE2BFB
:10111000F8CFCF93DF9390E0FC01E055FC4F249192
:101120008F569C4FFC0184918823C9F090E0880F72
:10113000991FFC01E959FC4FA591B491FC01EB58B2
:10114000FC4FC591D49161110DC09FB7F8948C915B
:10115000209582238C938881282328839FBFDF9149
:10116000CF910895623051F49FB7F8943C91822F4B
:10117000809583238C93E8812E2BEFCF8FB7F89443
:10118000EC912E2B2C938FBFEACF3FB7F894809130
:10119000EE039091EF03A091F003B091F10326B517
:1011A000A89B05C02F3F19F00196A11DB11D3FBF9F
:1011B000BA2FA92F982F8827BC01CD01620F711D6E
:1011C000811D911D42E0660F771F881F991F4A9568
:1011D000D1F708958F929F92AF92BF92CF92DF92F4
:1011E000EF92FF926B017C010E94C5084B015C01EC
:1011F000C114D104E104F104B9F00E94C5086819D2
:1012000079098A099B09683E73408105910580F33D
:1012100021E0C21AD108E108F10888EE880E83E0C7
:10122000981EA11CB11CE4CFFF90EF90DF90CF90EF
:10123000BF90AF909F908F9008958F929F92AF92A2
:10124000BF92CF92DF92EF92FF920F931F93CF93B3
:10125000DF936C017B018A0180910E01882309F4E0
:101260005CC080910704882309F457C08091F8037B
:1012700080FF05C08091E00082608093E000E8017B
:10128000B12C8AEFA82E93E0892E2AE3922E209784
:1012900011F4BB20D9F10E949C0681110AC0AA94C6
:1012A000AA20D9F161E070E080E090E00E94EA08B5
:1012B000EECF8C171D0611F00CF08C2F9FB7F89411
:1012C0008092E9002091E80025FD02C09FBFDFCF9A
:1012D000282F30E0C21BD30BF701815020F0419141
:1012E0004093F100FACFE20EF31EBB2021F0909262
:1012F000E800B12CEBCF8091E80085FDE7CF90921C
:10130000E800BB24B394209709F3F3CF5D9884E6FB
:101310008093F703101611063CF081E090E0F6018F
:101320009383828310E000E0C801DF91CF911F9189
:101330000F91FF90EF90DF90CF90BF90AF909F9074
:101340008F9008952FB7F8946091EA037091EB03A2
:101350008091EC039091ED032FBF089585ED80936C
:10136000BC008091BC0084FDFCCF1092C3030895A3
:1013700020919F03260F3327331F21323105ECF4D0
:101380002091C303FC0190E080E0243069F082E00A
:101390000895A0919F032191AC0141585C4FA40F87
:1013A000B52FB11D2C930196861798F380919F035A
:1013B000680F60939F0380E0089581E00895089589
:1013C0008FEF9FEF08958FEF9FEF089580917E0339
:1013D00090E09195819591090895CF93DF93CB018A
:1013E000EA01642F0E94B809CE01DF91CF910895E0
:1013F000CF93DF931F92CDB7DEB7698361E0CE0153
:1014000001960E94B80981E090E00F90DF91CF91A2
:101410000895DC011A96ED91FC9130E020E00994EA
:10142000DC011696ED91FC9130E020E040E069E1AE
:101430000994DC011696ED91FC9130E020E040E04B
:1014400068E109949A01DC011696ED91FC91462F12
:1014500067E10994EF92FF920F931F93CF93DF936D
:101460001F92CDB7DEB77C018B01D8016C9167313B
:1014700029F150F46531A0F40F90DF91CF911F91C5
:101480000F91FF90EF9008956A3118F16E3FA1F728
:10149000F8014181498369E2C7010E94090A0BC032
:1014A000F80141814983D7011696ED91FC9130E016
:1014B00020E0C70109950E5F1F4FD7CFF80181814A
:1014C0008983AE014F5F5F4F61E0C7010E94220A2E
:1014D000F2CF0F5F1F4FD7011696ED91FC9130E0D0
:1014E00020E040E0C7010995C0CF462FDC011696E9
:1014F000ED91FC9130E020E066E10994462FDC019B
:101500001696ED91FC9130E020E065E10994EF92B0
:10151000FF920F931F93CF93DF93EC01042F790178
:101520006D3009F446C050F46B30C9F1693009F4EC
:101530009FC06A3009F465C080E046C06E3009F48F
:1015400052C06F3099F70E94190AF7011381110FE9
:10155000110F110F6C89160F60E4CE010E947E0AF4
:10156000612F62956F706061CE010E947E0A612FCB
:101570006F70CE010E94750AF7016481606BCE0125
:101580000E94750AF701408151816281660F660FE2
:10159000660FCE010E94220A0150A1F72EC065E21B
:1015A00071E0442311F060E271E0CE010E942A0A4A
:1015B0000AC0411110C069E171E00E942A0AE88165
:1015C000F98182898C8B81E0DF91CF911F910F91FE
:1015D000FF90EF90089562E171E00E942A0AE8818D
:1015E000F9818389EFCF0E94190A61E8CE010E9438
:1015F0007E0A602FCE010E94750ACE010E94100A59
:10160000E2CFEA85FB8530E020E040E068E2CE01F1
:101610000995EE81FF8130E020E040E064E1CE01F9
:10162000099541E06BE4CE010E94090AE881F98145
:10163000448169E2CE010E94090A40E06BE4CE01D8
:101640000E94090AE881F981448169E2CE010E9481
:10165000090A41E06BE4CE010E94090AE881F981A0
:10166000458169E2CE010E94090A6AE271E09DCFDC
:101670008FE591E0998388831C8AA5CFCF93DF9370
:101680001F92CDB7DEB76983BE016F5F7F4F0E94A7
:1016900094060F90DF91CF910895462FDC011896A4
:1016A000ED91FC9130E020E060E20994EF92FF922E
:1016B0000F931F93CF93DF938C01C62FD42F790103
:1016C000673130F46531B8F4643131F080E01BC02B
:1016D000673101F16A31D0F7D8011896ED91FC918C
:1016E00097014D2F6C2FC801DF91CF911F910F9162
:1016F000FF90EF90099460E00E944D0B6D2FC801A0
:101700000E943E0B81E0DF91CF911F910F91FF90DE
:10171000EF90089561E00E944D0BDECFFC0166233F
:10172000D9F16A30C9F1818D811125C06C3F48F033
:1017300085E0818F617070E0738B628B2EEF3FEFDD
:1017400029C0683F20F084E0818F6370F4CF603F50
:1017500020F083E0818F6770EECF603E20F082E062
:10176000818F6F70E8CF262F30E0603C98F081E0E9
:10177000818F6F71E0CF8150818F2289338996E00C
:10178000220F331F9A95E1F76F73262B338B228B31
:101790008111D4CFC90108952FEF3FEFFBCF0F93F5
:1017A000DC01DF963C91DF97431BD596ED91FC91D0
:1017B00009950F910895CF93DF93FC01A081B1812A
:1017C00083AD982F990F990F990F96AF50969C91D2
:1017D0005097903208F09FE1990F990F990F95AFAC
:1017E00024AD922F990F990F990F97AF51963C9175
:1017F0005197682F620F7727771F3617170614F453
:10180000832F821BEF01C05CDF4F98832196880FE6
:10181000880F880F890F8883219680EF88835496DC
:101820008D919C915597813F910508F48883ED5BDC
:10183000FF4F56968C918083DF91CF9108950F933F
:10184000FC01EA5BFF4F308131965081451730F43F
:10185000301738F0041728F080E013C03017D0F3A9
:10186000FBCFFC01EC5BFF4F30818B5B9F4FFC019A
:101870008081681740F481E0321718F081E0261764
:1018800058F70F9108953217C8F3E6CF2F923F9281
:101890004F925F926F927F928F929F92AF92BF9280
:1018A000CF92DF92EF92FF920F931F93CF93DF932C
:1018B000EC014C0184E4880E911CF40110823297F3
:1018C00020805E01F5E4AF0EB11CF5012082359752
:1018D00030806E01F6E4CF0ED11CF60130823597D0
:1018E00040807E01F7E4EF0EF11CF7014082349650
:1018F0001081329760803196708032975080012F2E
:10190000262D472D652DCE010E941F0CCC58DF4F90
:10191000811114C01882DF91CF911F910F91FF9018
:10192000EF90DF90CF90BF90AF909F908F907F907F
:101930006F905F904F903F902F90089581E0888343
:10194000552011F0F4015082621410F4F501608208
:10195000371410F4F60170821415E8F6F7011083BD
:10196000DACF0F93DC01802FFD01EC58FF4F9081FF
:101970009923E9F12223D9F1223020F0023079F5C0
:101980006F5F621B082F0170FD0180FD32C0EA5BB2
:10199000FF4F8081481758F131968081481738F5FC
:1019A0003297908131978081260F2617F0F46917BE
:1019B000D8F42FEF290F8217D0F4681708F4682F96
:1019C000291708F4922F961BD796ED91FC91D89782
:1019D0000480F581E02D292FCD01099508C0033041
:1019E00089F64F5F421BCECF682F691720F30F9106
:1019F0000895EC5BFF4F80816817C8F331968081B2
:101A00006817A8F73296908131978081240F2417A8
:101A100078F4491760F42FEF290F821740F7481721
:101A200008F4482F291708F4922F941BCDCF482F84
:101A30004917E8F6F2CF0F931F93CF93DF93C82F88
:101A4000162FD82FD40F0D2F262F482F60E084E6B5
:101A500099E00E941F0C81110EC0DF91CF911F9160
:101A60000F91089500E0212F4C2F60E084E699E06B
:101A70000E94B10CCF5FDC13F5CFEFCF213039F0EE
:101A800020F0223031F0840F0895860F0895841BD2
:101A90000895861B0895213039F020F0223031F06E
:101AA000861B0895840F0895860F0895841B08955A
:101AB0005F926F927F928F929F92AF92BF92CF92DE
:101AC000DF92EF92FF920F931F93CF93DF935C010E
:101AD000162F642EEC01C05BDF4FDC80ED804C01E3
:101AE0008AE7880E911CFE80FD18C12EF11608F4BD
:101AF000CF2C5B800C85202F4E2D6D2D8A810E946E
:101B00003E0D782E202F4E2D6D2D852D0E944B0DD4
:101B1000482F662071F08A85F40180832C2D672D73
:101B2000C5010E94B10C1F1548F01F19E394D12C78
:101B3000DACF89858111F7CF8B85EECF1D0D1C8300
:101B4000ED82DF91CF911F910F91FF90EF90DF9089
:101B5000CF90BF90AF909F908F907F906F905F904D
:101B60000895DC0118964C911897ED91FC9111970E
:101B7000249130E0042E02C0359527950A94E2F7AF
:101B8000842F860F883068F031961196FC93EE937F
:101B9000E49198E0941B01C0EE0F9A95EAF72E2B82
:101BA000885018968C938FEF9FEF01C0880F6A952D
:101BB000EAF7809582230895FC01E60FF11D8491D8
:101BC00090E0982F88273196E4918E0F911D08950B
:101BD0000F931F93CF93DF938C01C62F642FCC32CA
:101BE000E8F4CA3208F041C0C83271F1C93209F4D0
:101BF00042C080E0C034D0F1CF73F801EC0FF11D8A
:101C0000878D8F3F91F1C031E0F00E94320821E0D2
:101C1000892B09F420E0F801228F27C0CD3289F109
:101C200040F384EB8C0F823020F7CF73C00FD12F9D
:101C3000D11D8F8D411133C061E00E94890860E0A1
:101C40008F8D0E945B0811C0015E1F4FD0E0F8012C
:101C500081918F018F3F31F061E0D03108F062E077
:101C60000E948908DF5FD63191F781E0DF91CF9143
:101C70001F910F91089570E090E080E00E94EA08C3
:101C8000F4CF85E090E0433010F082E090E0880FE0
:101C9000991F880F991F05970197F1F7E6CF62E02A
:101CA0000E948908E2CFEF92FF920F931F93CF9388
:101CB000DF932091790330917A030091770310919B
:101CC00078032F5F3F4F48E0E42EF12CC1E0D0E0D5
:101CD000F9010217130784F1C901B7010E943B29DA
:101CE0002F5F3F4FAF01F7FF02C0495F5F4F93E0A7
:101CF000559547959A95E1F7DA01AC58BC4F4C9150
:101D000050E0BE01082E02C0660F771F0A94E2F76A
:101D10004623572302C0559547958A95E2F7452BF0
:101D2000B9F2F0937A03E0937903DF91CF911F9199
:101D30000F91FF90EF90089530937A0320937903E9
:101D4000F4CFEF92FF920F931F93CF93DF9381E035
:101D500090E0909371038093700380916E03909153
:101D60006F039093730380937203C0917703D091B4
:101D7000780321E030E008E010E0EE24E394F12C59
:101D8000C217D30724F1F90183E0F695E7958A9508
:101D9000E1F7EC58FC4FC901B8010E943B29A701AB
:101DA00002C0440F551F8A95E2F7CA0180959081C1
:101DB0008923A901415051094770552791E0452BCE
:101DC00009F090E0892B80832F5F3F4FD9CFDF91BF
:101DD000CF911F910F91FF90EF90089541305105E1
:101DE000B9F142305105E1F0452B09F048C020918E
:101DF00077033091780361507109629FD001639F2E
:101E0000B00D729FB00D112440E228173907BCF1C4
:101E1000FC01EA0FFB1FE35BFD4F40830196F5CF0A
:101E2000209177033091780361507109629FF0012E
:101E3000639FF00D729FF00D1124E25BFD4F81E076
:101E400090E040E228173907D4F041930196FACF89
:101E5000615071092091770330917803629FF001FE
:101E6000639FF00D729FF00D1124E25BFD4F20E2A5
:101E70008417950724F021934F5F5F4FF9CF0895A2
:101E80000F931F93CF93DF932091700330917103D1
:101E9000281739070CF49C01809172039091730309
:101EA000681779070CF4CB014130510571F5F90140
:101EB0003197821793070CF458C041E050E0C0916D
:101EC0007703D0917803C417D507DCF0EC9FD001DD
:101ED000ED9FB00DFC9FB00D1124BA01635B7D4FE7
:101EE000A60FB71FC29F8001C39F100DD29F100D78
:101EF0001124600F711FEB0168816C934F5F5F4F7E
:101F0000DECF2F5F3F4F3196D4CFFC013197029740
:101F1000AF014F5F5F4F421753073CF141E050E084
:101F2000C0917703D0917803C417D5071CF431977B
:101F30000197EECFCE9FD001CF9FB00DDE9FB00DA9
:101F40001124BA01635B7D4FA60FB71F8C9F8001E0
:101F50008D9F100D9C9F100D1124600F711FEB01C0
:101F600068816C934F5F5F4FDBCFDF91CF911F9103
:101F70000F910895CF93DF9310924D0210924C026F
:101F80002091790330917A038091770390917803BF
:101F9000821793079CF480917B0390917C0321E04E
:101FA00030E030937A0320937903019690937C0379
:101FB00080937B0330934D0220934C02C0917203B7
:101FC000D091730380917B0390917C03C817D9074C
:101FD000A4F4D0937C03C0937B0341E050E0BE01A6
:101FE00090E080E00E94400F42E050E0BE0190E0AF
:101FF00080E0DF91CF910C94EE0EDF91CF910895A8
:10200000A9E7B3E02D913C91119712964D915C9107
:102010001397415051096091770370917803469F5F
:10202000F001479FF00D569FF00D1124E20FF31FB2
:10203000E35BFD4F80832F5F3F4F2D933C930C94C8
:10204000BA0FCF93DF9388E094E00E94CC078823F7
:1020500079F0C0910101D091020188E094E00E94E2
:102060008A07FE0109959093020180930101EBCF4D
:10207000DF91CF910895CF93DF93D0E0C0E0FE01D0
:10208000E05EFC4F8491E0910101F091020109951D
:1020900090930201809301012196C634D10579F70E
:1020A000DF91CF91089588EC90E09093480280935F
:1020B0004702089591E09093000140E050E060E80D
:1020C00070EC882321F040E050E060E271E440933E
:1020D0004102509342026093430270934402811183
:1020E00011C08FEF9FEF2091450230914602820F81
:1020F000931F97FF0AC0865A9F4F90934602809382
:102100004502089581E090E0EECF8A359105ACF369
:102110008A559109F2CF80E00C945A1081E00C941A
:102120005A10CF92DF92EF92FF920F931F93182FC6
:102130000E94A209C0902302D0902402E0902502C0
:10214000F0902602C616D706E806F90630F51123E8
:1021500059F10E948E100E94A209E0914702F0916D
:1021600048028F010F2E000C220B330BAB01BC0178
:10217000400F511F621F731F40932302509324028C
:1021800060932502709326021E161F0634F4CF01B9
:102190004E9790934802809347021F910F91FF90B2
:1021A000EF90DF90CF9008950E948B10D4CF80E005
:1021B0000C94911081E00C949110809147029091C1
:1021C00048026CE070E00E943B29462F6091A6090E
:1021D00080914902811109C08091A709895F90917E
:1021E0003F02891B841B0C941B0D80E0FCCF8C39B3
:1021F00009F44BC08B3339F4109222021092210261
:1022000088E491E1089590912002911105C0809396
:10221000200287EF90E1089540911E0250911F0225
:10222000453051051CF59A3324F590539295907FD3
:102230008A332CF580536091210270912202E5E0EF
:10224000E69F9001E79F300D11242E513E4FF9017A
:10225000E40FF51F890F80834F5F5F4F50931F027C
:1022600040931E02240F351FF901108210922002A4
:10227000D0CF973614F49755D9CF90E0D7CF873683
:1022800014F48755D8CF80E0D6CF82EB91E1089542
:102290008C3979F140912102509122028F3291F4D0
:1022A0001092200210921F0210921E0285E0849F5D
:1022B000F001859FF00D1124EE51FE4F108287EF43
:1022C00090E108959AE0949F9001959F300D11241C
:1022D000082E000C990BC097820F931F6CE070E0E2
:1022E0000E942729909322028093210288E491E1A1
:1022F000089582EB91E108958C3961F08B3319F0E8
:102300008CE791E10895109222021092210288E454
:1023100091E1089582EB91E108958C3941F08B337E
:1023200019F48CE791E108958DE891E1089582EB2D
:1023300091E108951092200210922202109221023F
:1023400010921F0210921E020C948D1182EB91E1EB
:10235000089582EB91E1089582EB91E1089582EB7B
:1023600091E10895EBEFE80FE73108F075C00E2E0C
:10237000000CFF0BE254FE4E0C947129DE112C125E
:10238000DB110512E311ED11ED11ED11D511DB118A
:10239000DB112C122C122C122C122C122C122C129F
:1023A0002C122C122C122C12E61181E090E090934A
:1023B0007A038093790382EB91E108958AEC90E0AF
:1023C0000E946907F8CF0E94530EF5CF10924D027C
:1023D00010924C0282E99FE1089580914C02909105
:1023E0004D02892B79F481E090E090937A038093F9
:1023F000790380917B0390917C03019690937C03F9
:1024000080937B030E94BA0FD6CF8091790390917D
:102410007A03823091052CF0019790937A03809390
:10242000790380917B0390917C030197209177033E
:1024300030917803829FF001839FF00D929FF00D01
:1024400011248091790390917A03E80FF91FE35BDF
:10245000FD4F80E28083D6CF0E940010ACCF2F9238
:102460003F924F925F926F927F928F929F92AF9224
:10247000BF92CF92DF92EF92FF920F931F93CF9371
:10248000DF936C01CAE9D8E086E0282E312C92E077
:10249000492E512C66246394712C8881998197FD73
:1024A00033C00E9432087C01088519850E94A20968
:1024B0004B015C018F89988D009751F4E016F1066D
:1024C00019F5788E6F8A898E9A8EAB8EBC8E1CC061
:1024D0008130910509F05FC0898D9A8DAB8DBC8DDF
:1024E000B501A401481B590B6A0B7B0BE016F106E2
:1024F000A9F18A819B81B0E0A0E0481759076A07DB
:102500007B0728F5188E1F8AA19689E0C036D80768
:1025100021F60E94A209665F7F4F8F4F9F4FF60101
:102520006283738384839583DF91CF911F910F9191
:10253000FF90EF90DF90CF90BF90AF909F908F90E3
:102540007F906F905F904F903F902F900895588E9E
:102550004F8A8D8E9E8EAF8EB8A2D6CF8E819F81F0
:10256000B0E0A0E084179507A607B70768F681E0FA
:102570008A87EF85F889309709F00995E989FA8902
:10258000309709F00995ED89FE89309709F0099592
:10259000388E2F8ADECF82309105D9F58D859E85C4
:1025A000892B99F0898D9A8DAB8DBC8DB501A401D5
:1025B000481B590B6A0B7B0B8C819D81B0E0A0E01E
:1025C00084179507A607B70738F4EB85FC85309785
:1025D00009F498CF099596CFE016F10609F094CF4B
:1025E0008D8D9E8DAF8DB8A1B501A401481B590BEF
:1025F0006A0B7B0B8A819B81B0E0A0E08417950772
:10260000A607B70708F080CFE3E0F0E0F88FEF8B84
:102610005ACF8330910501F5E016F10609F474CF25
:10262000898D9A8DAB8DBC8DB501A401481B590BCA
:102630006A0B7B0B8A819B81B0E0A0E08417950731
:10264000A607B70708F060CFED85FE85309709F043
:102650000995188E1F8A7DCF069709F055CFE01691
:10266000F10621F01A86EB89FC89F0CFF1E0FA87B8
:10267000ED89FE89309709F447CF099545CFEAE9FE
:10268000F8E014861386128A118A168A158A148A2B
:10269000138AB19689E0E036F80799F708958AE041
:1026A00080934A0281E080934B020C943F1388E2AE
:1026B00080934A020C943F130E943F13A2E8B8E0B3
:1026C000EAE9F8E08D919C9111979487838712969F
:1026D0008D919C911397928B818B1496B19689E082
:1026E000E036F80779F78FE493E19093CD08809373
:1026F000CC080895CF92DF92EF92FF920F931F9331
:10270000CF93DF936C01EB017B01E40EF51E10E02B
:1027100000E0CE15DF0561F06991D601ED91FC91E5
:102720000190F081E02DC6010995080F191FF1CF26
:10273000C801DF91CF911F910F91FF90EF90DF9033
:10274000CF9008953F924F925F926F927F928F92B7
:102750009F92AF92BF92CF92DF92EF92FF920F9330
:102760001F93CF93DF93EC016C0124E0C20ED11CC8
:10277000FC01E058FF4F0190F081E02DC601099562
:102780008C010E3F8FEF180708F040C0FE01ED5797
:10279000FF4FF0804E0192E8890E911CF401E08019
:1027A000B2978081813009F44FC008F443C0823071
:1027B00009F454C0833009F45BC0FE01EA5AFF4FAC
:1027C000E0823196F08237978081918147960F3F62
:1027D000110511F008F0E7C0B4960136110530F488
:1027E0000134110538F0FE01EE58FF4F2081318190
:1027F000820F931F9C012F5F3F4FF90144914111BC
:1028000041C0612CF4018081680E608281E090E01B
:10281000DF91CF911F910F91FF90EF90DF90CF90BC
:10282000BF90AF909F908F907F906F905F904F90F0
:102830003F900895FE01EE5AFF4F0190F081E02D88
:10284000C6010995F80EB9CFFE01EE5AFF4F01906F
:10285000F081E02DC6010995E81AAFCFFE01EE5ACE
:10286000FF4F0190F081E02DC6010995F81AA5CF20
:10287000FE01EE5AFF4F0190F081E02DC60109954F
:10288000E80E9BCFFC0144914017110609F086C069
:102890000296009709F4B5CF7E01F4E5EF0EF11C26
:1028A000F70191838083108671966081C7010E9431
:1028B000B10DF701868372966081C7010E94B10D48
:1028C000782EF70187835E01FEE7AF0EB11CF5019C
:1028D0009081F701928781E0911180E0F701838771
:1028E000FE01E959FF4F5080652DC7010E94B10DCF
:1028F000482EFE01E859FF4F1081612FC7010E9449
:10290000B10D382EFE01E759FF4F0081602FC7013E
:102910000E94B10D015041E050E09A0101C0220F28
:102920000A95EAF7682E621AF701068110160CF074
:1029300069CF5A94CA0101C0880F5A94EAF7481A1D
:102940005484370C115001C0440F1A95EAF7F42F44
:10295000F3193F2E252D4F2F642DF70182810E9400
:102960003E0D182FF7018283252D432D642D838181
:102970000E944B0DF7018383F1E05F1609F479C0E3
:102980005F1608F43FC022E0521609F478C093E0C5
:10299000591609F47FC0082F212F38C0F90124915E
:1029A000820F911D27CFFE01EA58FF4FA080B18012
:1029B000A80EB91E750160E0C7010E94DC0DA80ECB
:1029C000B91E62E0C7010E94DC0DF4E0EF0EF11CBD
:1029D0008017910780F3F501849190E0982F882764
:1029E0003196E4918E2B009709F40BCF0817190745
:1029F00019F4C50103964DCFF5013296E491AE0E60
:102A0000B11CE9CF202F210F082F070D482F612F70
:102A1000C6010E941F0C882309F4F4CEF70114822A
:102A200015828E010D591F4FCC59DF4FF80160817F
:102A3000C7010E94B10D482E6881C7010E94B10DE7
:102A4000582E40E0642DC6010E94580D41E0652DCE
:102A5000C6010E94580D61E0C7010E94B10D8111AD
:102A6000F0CFF701858187150CF38285F50180830E
:102A7000C9CE571821E0210F080F150DC7CF91E0DF
:102A8000392F301B21E0210F971901E0080F890F22
:102A9000130FBCCF212F270D982F901B01E0080F9B
:102AA00081E0890FB3CF4F925F926F927F92AF9286
:102AB000BF92CF92DF92EF92FF920F931F93CF932B
:102AC000DF930E94A20928EE33E040E050E00E942C
:102AD0004F292B013C01F12CE12C01E067012FEF84
:102AE000C21AD20A80917703909178038C159D05C4
:102AF0000CF45CC0C1E0D0E0C701825B9D4F5C017B
:102B000080916E0390916F038C179D070CF44CC05D
:102B100093EC491691E059066104710478F08091B4
:102B2000790390917A038C159D0541F411E0809111
:102B30007B0390917C038C179D0709F010E0909126
:102B40003F0280913B029C9F800D112420913D0209
:102B5000909139022E9D900D11249093E20980935B
:102B6000E309812F80270E94F70540917703509158
:102B700078039E0121503109249FC001259F900DAB
:102B8000349F900D11248A0D9B1DFC016081611101
:102B900002C0111160E280E699E00E94A21381E078
:102BA0000E94F7052196ACCF760198CFDF91CF91A7
:102BB0001F910F91FF90EF90DF90CF90BF90AF905B
:102BC0007F906F905F904F900895BC0120917703A4
:102BD0003091780380917B0390917C030197829FD1
:102BE000A001839F500D929F500D11248091790375
:102BF00090917A030197480F591F80916E0390912D
:102C00006F03289FF001299FF00D389FF00D1124CC
:102C100030E020E091E02E173F07D4F461157105F4
:102C200031F06130710559F0992331F00CC091E019
:102C30002417350744F490E02F5F3F4FECCF91E02D
:102C400024173507C4F7D901A25BBD4F1C92F4CFFE
:102C50006230710554F081E090E090937A038093A4
:102C6000790390937C0380937B030C945315089510
:102C700090E080E00895FB0101900020E9F7319792
:102C8000AF01461B570BDC01ED91FC910280F381F3
:102C9000E02D099462EE71E088E094E00E943B161A
:102CA0000C94EC0567EE71E088E094E00E943B161E
:102CB0000C94EC056CEE71E088E094E00E943B1609
:102CC0000C94EC0561EF71E088E094E00E943B1603
:102CD0000C94EC0566EF71E088E094E00E943B16EE
:102CE0000C94EC056BEF71E088E094E00E943B16D9
:102CF0000C94EC0560E072E088E094E00E943B16E2
:102D00000C94EC0565E072E088E094E00E943B16CC
:102D10000C94EC056AE072E088E094E00E943B16B7
:102D20000C94EC056FE072E088E094E00E943B16A2
:102D30000C94EC0564E172E088E094E00E943B169C
:102D40000C94EC0569E172E088E094E00E943B1687
:102D50000C94EC058F929F92AF92BF920F931F93AA
:102D6000CF93DF93CDB7DEB7A1970FB6F894DEBF50
:102D70000FBECDBF19A2423008F44AE08E010F5DAC
:102D80001F4F842E912CB12CA12CA50194010E94DF
:102D90004F29E62FB901CA01EA3044F5E05DD801B8
:102DA000EE938D01232B242B252B79F790E080E0E7
:102DB000109769F0FD0101900020E9F73197AF010C
:102DC0004A1B5B0BBD0188E094E00E941D09A1969F
:102DD0000FB6F894DEBF0FBECDBFDF91CF911F912C
:102DE0000F91BF90AF909F908F900895E95CD7CFDF
:102DF000CF92DF92EF92FF92CF93DF936C01990F06
:102E0000EE08FF08F7FE19C06DE288E094E00E942A
:102E10005307EC0166277727CB016C197D098E09D2
:102E20009F094AE00E94AA168C0F9D1FDF91CF9147
:102E3000FF90EF90DF90CF9008954AE0C701B60170
:102E4000DF91CF91FF90EF90DF90CF900C94AA1676
:102E5000FC01A081B18150962C9183AD38E0839F15
:102E6000C0011124289FA001299F500D112470E05A
:102E700060E081AD92AD0C947729EF92FF920F93B1
:102E80001F93CF93DF93E0916809F091690930E0D7
:102E900020E040E06AE084E699E009958091DF094E
:102EA000882321F084E699E00E94281780E00E94A0
:102EB000FA050E941206C091A00980919F09C80FCF
:102EC000E0916409F09165098189C81708F48BC005
:102ED000E0916809F091690930E020E040E060E1AC
:102EE00084E699E0099580E00E94FA05E09168097E
:102EF000F091690930E020E040E06BE084E699E081
:102F000009958EE89BE09093E1098093E009809118
:102F1000B0099091B1098356944009F06EC00091B8
:102F2000CB09002E000C110B1093400200933F02BE
:102F3000C091CA090C2E000CDD0BD0933E02C09349
:102F40003D028091A709282F30E0C901B8010E94F5
:102F50003B297B016C3071051CF04CE0E42EF12C18
:102F6000F0926F03E0926E038091A609E82FF0E0E3
:102F7000CF01BE010E943B296831710514F068E160
:102F800070E070937803609377030E9DC0010F9DEE
:102F9000900D1E9D900D1124A901481B590BCA01CB
:102FA00057FD01969595879590933C0280933B023F
:102FB000C69FC001C79F900DD69F900D11249F0101
:102FC000281B390BC90137FD01969595879590937C
:102FD0003A0280933902DF91CF911F910F91FF90B8
:102FE000EF900C94A10E8091DF09882321F084E6F4
:102FF00099E00E9428178C2F5ACFE3E6F4E0F09373
:10300000B109E093B009E491E093C109E4E6F4E08A
:10301000E491E093C209E5E6F4E0E491E093C309AA
:10302000E6E6F4E0E491E093C409E7E6F4E0E49135
:10303000E093C509E8E6F4E0E491E093C609E9E627
:10304000F4E0E491E093C709EAE6F4E0E491E09368
:10305000C809EBE6F4E0E491E093C909ECE6F4E09A
:10306000E491E093CA09EDE6F4E0E491E093CB0942
:10307000EEE6F4E0E491E093CC09EFE6F4E0E491CD
:10308000E093CD09E0E7F4E0E491E093CE09E1E7D5
:10309000F4E0E491E093CF09E2E7F4E0E491E09317
:1030A000D009E3E7F4E0E491E093D10961E183E63C
:1030B00094E00E94DC0D9093D3098093D20963E1E0
:1030C00083E694E00E94DC0D9093D5098093D409A7
:1030D00065E183E694E00E94DC0D9093D70980932C
:1030E000D6098091B0099091B109892B09F417CFC5
:1030F0008091CE098093DA094091CF094093DB0992
:103100009091D909992309F40ACF913071F49091E3
:10311000D009891714F49093DA098091D1098417A2
:103120000CF0FDCE8093DB09FACE3091CB092091D3
:10313000CD09082E000C990B632F032E000C770B82
:10314000620F711D27FD7A95861797071CF4320FC1
:103150003093DA0924170CF0E2CE2093DB09DFCE9E
:103160000F931F93CF93DF93EC01683109F46EC086
:1031700058F46431F9F0F901673181F080E0DF91B2
:10318000CF911F910F910895693109F49CC060326D
:10319000A9F76AE4CE010E94090A56C0442309F443
:1031A00053C081918EBD00000DB407FEFDCF8EB5DA
:1031B0004150F4CFE881F9818C859D85AE85BF852E
:1031C000892B8A2B8B2B41F480859185A285B38531
:1031D0008C879D87AE87BF87418169E4CE010E94BD
:1031E000090ACFB7F89480917D03811127C0E2EAE4
:1031F000F3E08491E1ECF3E09491E82FF0E0EE0F3E
:10320000FF1FE959FC4FA591B491EC91E92321F4FA
:1032100061E081E10E945B0861E081E10E94890830
:103220008CB580618CBD8CB580648CBD61E08FE015
:103230000E94890861E080E10E94890880917D03F5
:103240008F5F80937D03CFBF81E099CFE881F981C3
:10325000E485E15090E0E33020F4F0E0E15FFE4FE0
:1032600090810C851D852E853F8540E052E16AE7FF
:1032700070E080E0041715072607370740F47695BD
:103280006795579547958F5F8630A1F787E09C70CB
:103290009065282F2695922B809581709CBD8DBDC1
:1032A000E881F981408169E4CE010E94090AA88180
:1032B000B981EA85FB8530E020E012964C916CE202
:1032C000CE010995C1CFA881B981EA85FB8530E09F
:1032D00020E013964C916CE20995E881F9814181D7
:1032E00069E458CF6F927F928F929F92AF92BF9274
:1032F000CF92DF92EF92FF920F931F93CF93DF93C2
:1033000000D000D000D0CDB7DEB78C010E94A2095A
:103310006B0180910001882309F4A3C184E699E040
:103320000E9428170E94531580914B02882309F4AC
:1033300051C180914A028E3109F49AC008F045C00B
:10334000843181F1853109F462C08A3009F042C1CB
:1033500080916E0390916F0397FD019695958795E7
:1033600021E040917B0350917C03841795070CF07A
:1033700020E020934902109248021092470284E113
:1033800080934A02109246021092450280E090E03B
:10339000A0E2B1E48093410290934202A0934302E1
:1033A000B09344020E94DD10809147029091480240
:1033B00044969093480280934702853691050CF419
:1033C00009C185E180934A0205C1893279F08233CF
:1033D00009F442C1883209F0FDC084E690E0909380
:1033E00048028093470289E280934A020E94DD10DE
:1033F00080914702909148024497909348028093AD
:103400004702181619060CF4E5C082E3DBCF8BE8FF
:1034100090E19093A6088093A50883E590E19093AE
:10342000AC088093AB0827ED30E13093B0082093CF
:10343000AF082DE53BE13093C7082093C60827E588
:1034400033E13093CD082093CC082EE830E130935F
:10345000E8082093E7089093EE088093ED088AED42
:1034600090E19093F2088093F1088EE180934A02F4
:103470006091A609809149028111D7C08091A70966
:10348000825090913F02891B49E00E941B0D912CB4
:10349000812C8CEFA82EBB24BA9496E0692E8091E3
:1034A000490270903F027394811104C07090A70983
:1034B0007A947A9480913D0290913E02889EB00168
:1034C000899E700D989E700D1124072E000C880B9C
:1034D000990B0E9472282091410230914202409142
:1034E0004302509144020E945E270E94412860934B
:1034F000E2097092E30981E0A114B10409F080E0CF
:103500000E94F70580914502909146028A0D9B1D0D
:1035100097FF8DC0865A9F4F689EB001699E700DBF
:1035200011246C5F7E4F46E050E0CE0101960E9470
:103530004527BE016F5F7F4F80E699E00E943B16F2
:1035400081E00E94F7052FEFA21AB20A84E0880EEC
:10355000911CE5E0AE16B10409F0A1CF80904102C4
:1035600090904202A0904302B0904402A5019401C1
:1035700060E070E080E490E40E945D2720E030E0AD
:1035800040EA50E40E94CF27A50194010E945E27E3
:1035900060934102709342028093430290934402ED
:1035A00020E030E040E450E40E945D274B015C01E4
:1035B00020E030E0A9010E94222918160CF03EC03C
:1035C0002DEC3CEC4CEC5DE3C501B4010E942229DA
:1035D0001816F4F1B12C80919F09B81608F041C07B
:1035E000E0916409F0916509918989131CC02089D3
:1035F00080919D0990919E093091A109B39E800D03
:10360000911D11241C82BD822B839A838983E091B2
:103610006809F09169099E012F5F3F4F41E06FE01B
:1036200084E699E00995B394D6CF80E02DCF8A3512
:1036300091050CF471CF8A5591096ECF2DEC3CECBD
:103640004CEC5DEBC501B4010E94CA2787FFC2CFD5
:1036500081E080930001BECF10924B020E945C1368
:10366000B9CF0E94A2094B010E94A209F0E1CF0E3E
:10367000D11CC818D9080D2C000CEE08FF08C60E86
:10368000D71EE81EF91EF801C282D382E482F582B9
:1036900026960FB6F894DEBF0FBECDBFDF91CF9157
:1036A0001F910F91FF90EF90DF90CF90BF90AF9060
:1036B0009F908F907F906F900895CF93DF9300D06D
:1036C00000D000D0CDB7DEB7809145029091460280
:1036D00026E0289FB001299F700D11246C5F7E4F5A
:1036E00046E050E0CE0101960E944527BE016B5F87
:1036F0007F4F88E094E00E943B1626960FB6F89420
:10370000DEBF0FBECDBFDF91CF9108950F931F9302
:10371000CF93DF930091350210913602209137024A
:1037200030913802E801CC0FDD1F1216130624F485
:103730008DE292E00E942727C95DDD4F998388833F
:103740000F5F1F4F1093360200933502109238021C
:1037500010923702DF91CF911F910F910895EF9250
:10376000FF920F931F93CF93DF93E3EDE80FE834BD
:1037700008F07DC0C82F0E2E000CFF0BEE53F44E48
:103780000C9471290A1C371C371C0A1C0A1C0A1CC1
:103790000A1C0A1C0A1C0A1C0A1C0A1C0A1C371CCC
:1037A000251C371C371C371C371C2A1C3F1C3F1C90
:1037B0003F1C3F1C881C881CAA1CB71CD21CE41C84
:1037C000EF1C021D261D371C371C4C1D371C371CD7
:1037D0008F1DB31D371C371C371CD71D371C041E0B
:1037E000371C371C371C371C371C371C371C451E31
:1037F000711E781E371C811E8E1E371CE31E371C5F
:10380000371C371C371C371C371C371C371C371C20
:10381000371C261F2091370230913802C9010196CA
:103820009093380280933702235D3D4FF901C083A6
:10383000835D9D4FFC0110828FEA9BE1DF91CF9168
:103840001F910F91FF90EF90089581E090E00E940A
:10385000861BF2CF81E090E00E94861BD0E0C0E0A2
:103860008091270290912802C817D9071CF082EB9B
:1038700091E1E4CF80E20E9400102196F1CF81E037
:1038800090E00E94861B8091790390917A032DEB42
:103890002C0F2230B8F54FEF5FEFC43411F041E048
:1038A00050E06091270270912802469F9001479F47
:1038B000300D569F300D1124820F931F90937A0381
:1038C0008093790380917B0390917C032FEB2C0FE5
:1038D0002230D8F44FEF5FEFC13411F041E050E0F7
:1038E0006091270270912802469F9001479F300DFA
:1038F000569F300D1124820F931F90937C03809369
:103900007B03B5CF30E020E0D7CF30E020E0F3CF2D
:1039100081E090E00E94861B81E090E090937A0322
:103920008093790340917B0350917C0321E030E048
:10393000C53411F02FEF3FEF6091270270912802FC
:10394000269FC001279F900D369F900D1124840F54
:10395000951FD3CF81E090E00E94861B80912702C3
:103960009091280290937A038093790380CF81E02D
:1039700090E00E94861B80912702909128029093EC
:103980007C0380937B038091350290913602181658
:1039900019062CF48091290290912A02E3CF81E04C
:1039A00090E0E0CF81E090E00E94861BD0E0C0E094
:1039B0008091270290912802C817D9070CF057CFA1
:1039C0000E94530E2196F4CF90E080E00E94861B67
:1039D00080912702909128020E94E51548CF90E03F
:1039E00080E00E94861B409127025091280260913E
:1039F0007B0370917C038091790390917A030E94FC
:103A0000EE0E35CF81E090E00E94861BD0E0C0E052
:103A10008091270290912802C817D9070CF027CF70
:103A200000917B0310917C0360916E0370916F0392
:103A300050E040E0C8010E94400F42E050E0B80171
:103A400090E080E00E94EE0E2196E2CF81E090E0CF
:103A50000E94861BD0E0C0E080912702909128024E
:103A6000C817D9070CF003CF60916E0370916F03F4
:103A700041E050E080917B0390917C030E94400FD5
:103A8000609172037091730342E050E090E080E037
:103A90000E94EE0E2196E0CF81E090E00E94861B0E
:103AA00030E020E0A0E280912702909128022817C0
:103AB00039070CF0DCCE8091770390917803609108
:103AC0007B0370917C0361507109689FA001699F1D
:103AD000500D789F500D1124E0917903F0917A03F5
:103AE0001E161F0614F0E1E0F0E0E40FF51FE25BA4
:103AF000FD4FBF01641B750B6E547240861797070C
:103B00002CF0EF01219761916883F3CF840F951F0B
:103B1000FC01E35BFD4FA0832F5F3F4FC4CF81E0EB
:103B200090E00E94861BD0E0C0E080912702909137
:103B30002802C817D9070CF09ACE60916E037091D5
:103B40006F0341E050E090E080E00E94400F609100
:103B500072037091730342E050E090E080E00E94B5
:103B6000EE0E2196E2CF81E090E00E94861BD0E02D
:103B7000C0E08091270290912802C817D9070CF065
:103B800076CE60916E0370916F0350E040E090E05C
:103B900080E00E94400F609170037091710342E0D9
:103BA00050E090E080E00E94EE0E2196E2CF81E0AE
:103BB00090E00E94861B609127027091280220915C
:103BC000790330917A0380917B0390917C03019774
:103BD000E0917703F09178038E9FA0018F9F500DA5
:103BE0009E9F500D112490E080E0240F351F40E28D
:103BF000861797070CF03BCEF901E80FF91FE35B3E
:103C0000FD4F40830196F4CF81E090E00E94861B37
:103C1000A0912702B09128024091790350917A0334
:103C200070E060E0C1E0D0E06A177B072CF05093B1
:103C30007A03409379031BCE9A0121503109A901DF
:103C400012161306FCF4890107701127215031095F
:103C5000FA0113E0F595E7951A95E1F7EC58FC4F5A
:103C6000808190E0FE01002E02C0EE0FFF1F0A943B
:103C7000E2F78E239F2302C0959587950A95E2F778
:103C8000892BE9F26F5F7F4FCFCF81E090E00E94F8
:103C9000861B80917B0390917C0301972091770391
:103CA00030917803829FF001839FF00D929FF00D79
:103CB00011248091790390917A03E80FF91FE45B56
:103CC000FD4F1081D0E0C0E0809127029091280242
:103CD000C817D9070CF0CBCD812F0E940010219678
:103CE000F3CF8AEF90E00E9469070E94EC05BFCDF8
:103CF00081E090E00E94861B80912702909128022B
:103D0000FCCD81E090E00E94861B8091270290917B
:103D1000280290937C0380937B033CCE90E080E06C
:103D20000E94861B8091270290912802009759F1EA
:103D3000039709F09CCDE0907703F090780321E0A1
:103D400030E008E010E0C1E0D0E0E216F3060CF449
:103D50008ECDF90183E0F695E7958A95E1F7EC5869
:103D6000FC4FC901B8010E943B29AE0102C0440FBB
:103D7000551F8A95E2F7CA01809590818923808337
:103D80002F5F3F4FE2CF8091790390917A03FC013E
:103D900097FD379623E0F595E7952A95E1F7EC58DE
:103DA000FC4F68E070E00E943B2921E030E0A9016F
:103DB00002C0440F551F8A95E2F7CA018095908191
:103DC0008923808354CD90E080E00E94861B8091FF
:103DD000270290912802892B09F049CD83EF90E0CA
:103DE0000E946907F12CE12C87010F5F1F4F809122
:103DF0006E0390916F03801791072CF1C1E0D0E022
:103E000080917703909178038C179D07A4F0E89E2A
:103E1000F001E99EF00DF89EF00D1124EC0FFD1F4E
:103E2000E35BFD4F6081662321F088E094E00E940F
:103E300053072196E5CF81EF90E00E9469070E9429
:103E4000EC057801D1CF8AEE90E04DCF81E090E093
:103E50000E94861B80912702909128028231910551
:103E6000D1F0439709F003CD8CED90E00E946907F3
:103E700080916E0390916F030E94F8168AED90E096
:103E80000E94690780917703909178030E94F81649
:103E900088ED90E028CF85EE90E00E946907809140
:103EA0006E0390916F030E94F81683EE90E00E94DB
:103EB000690780917703909178030E94F81681EE4C
:103EC00090E011CF10923602109235021092380213
:103ED000109237020C94AF1BCF93DF93EAE9F8E01E
:103EE0004CE251E024EF31E088E290E055834483D6
:103EF0003783268393838283B19669E0E036F607A1
:103F0000A9F7D0E0C0E0BE0164557F4FCE018E51CD
:103F10009E4F0E944E272596CC33D105A1F7DF9105
:103F2000CF910895873309F45EC0ACF4893209F467
:103F300054C04CF4853209F44DC0883209F44AC0AB
:103F400082EB91E108958A3209F44AC08B32C1F7BD
:103F500086EA91E108958834F9F0A4F4883309F4ED
:103F600053C0863469F781E090E090937A038093A0
:103F7000790380916E0390916F0390937C038093FB
:103F80007B03DECF8B3519F1833609F44EC08035C3
:103F9000B9F68AE991E108958091790390917A03C5
:103FA000FC0197FD379623E0F595E7952A95E1F713
:103FB000EC58FC4F68E070E00E943B2921E030E0C3
:103FC00001C0220F8A95EAF78081822B808382E6E6
:103FD0009FE108958FEA91E108958CEA91E10895B7
:103FE00089EA91E108958091790390917A03A091F3
:103FF0007B03B0917C038093DE019093DF01A0935B
:10400000E001B093E1019CCF8091DE019091DF014E
:10401000A091E001B091E1018093790390937A033C
:10402000A0937B03B0937C038BCF0E946C1F0E94F4
:10403000A10E82E090E00E94E51582CF0E946C1FE5
:104040000C945C131F920F920FB60F9211242F93B2
:104050003F934F935F936F937F938F939F93AF9310
:10406000BF93CF93EF93FF93C091E1008091E10064
:10407000837F8093E100C3FF0FC01092E90081E0CD
:104080008093EB001092EC0082E38093ED0010929D
:10409000070488E08093F000C2FF1AC00E94EC057C
:1040A0008091F703882341F08091F703815080933A
:1040B000F703811101C05D9A80910604882341F0C5
:1040C00080910604815080930604811101C0289AD2
:1040D000C4FF23C08091E2008E7E81608093E20065
:1040E0008091E1008F7E8093E1008091F8038E7EC5
:1040F00080618093F803FF91EF91CF91BF91AF91D1
:104100009F918F917F916F915F914F913F912F91EF
:104110000F900FBE0F901F901895C0FFECCF8091AD
:10412000E2008E7E80618093E2008091E1008E7ECD
:104130008093E1008091F8038E7E8160DACF1F9238
:104140000F920FB60F921124CF92DF92EF92FF924F
:104150000F931F932F933F934F935F936F937F938F
:104160008F939F93AF93BF93EF93FF93CF93DF937F
:10417000CDB7DEB76C97DEBFCDBF1092E90080915E
:10418000E80083FF25C068E0CE0145960E944607FF
:1041900082EF8093E8008D8987FF39C09091E80015
:1041A00090FFFCCF982F907609F034C19E894F89FB
:1041B000588D2F89F88C911131C0803861F580912C
:1041C000F9038093F1001092F1008EEF8093E800E4
:1041D0006C960FB6F894DEBF0FBECDBFDF91CF91C6
:1041E000FF91EF91BF91AF919F918F917F916F91CF
:1041F0005F914F913F912F911F910F91FF90EF9001
:10420000DF90CF900F900FBE0F901F9018959EEFEC
:104210009093E800C7CF1092F100D5CF913059F4B8
:104220008111D3CF4130510581F68091F9038D7F03
:104230008093F903CACF933049F48111C6CF41303E
:10424000510519F68091F9038260F2CF953041F45F
:104250008091E80080FFFCCF20682093E300B5CF79
:10426000963009F0A9C00B8D1C8D22E01092E90058
:104270001092F5031092F403F2122EC01092F30381
:104280001092F2030E9415071F8299E09983FA8227
:1042900091E09E8390EA98879AEF99872091F403A2
:1042A0003091F503275F3F4F3C832B838D83109222
:1042B000E9001092F5031092F4031093F3030093B6
:1042C000F20349E050E0BE016F5F7F4F80E00E9443
:1042D000EF060E94150779CF1093F3030093F203C2
:1042E0000E94AD06DC0112960D911C91011511057D
:1042F00009F451C1D801ED91FC910480F581E02DC4
:10430000BE016B5E7F4FC8010995009709F03EC161
:10431000F80100851185EACFF3E0FF120EC08F8906
:10432000882309F440C0823061F440E860E182E50E
:1043300094E00E943624811148CF81E28093EB0003
:1043400047CF813029F440E86BE086E494E0F1CF78
:10435000833099F70E94AD06DC011296ED90FC9037
:104360008E010F5F1F4F6801E114F10479F0D7014E
:10437000ED91FC910680F781E02DB801C701099508
:10438000080F111DF701E084F184EECFD8011C92D3
:10439000F60101900020E9F73197BF016C197D0902
:1043A00040E0C601C6CF60E374E0FB01449150E0F9
:1043B00080E80E94EF0609CF973009F4BECF98300D
:1043C00021F481E08093F10000CF993009F0FDCE17
:1043D000837009F0B2CFE8E7F1E081E031E096E3E5
:1043E0002191222371F08093E9003093EB00DF01EB
:1043F00011972C912093EC009093ED008F5F873004
:1044000079F78EE78093EA001092EA008F89809313
:104410000704DBCE8B8D9C8D1092E9001092F50382
:104420001092F4039093F3038093F203898D81112A
:1044300092C08E899D89913A49F4813209F07DCFED
:1044400047E050E067E071E080E0B3CF913209F0DF
:1044500074CF833269F48F89988DB0E0A0E08093A7
:10446000030190930401A0930501B0930601ADCE22
:10447000803269F48091E80082FFFCCF67E087E03A
:1044800091E00E9446078BEF8093E8009ECE823237
:1044900009F09BCE8F8980930E01EEEFFFE78591A7
:1044A00094918B3F9C4D51F1E0E0F8E08091070141
:1044B00090910801A0910901B0910A01803B9440BC
:1044C000A105B105F1F480910E0180FD1AC0EE3F07
:1044D0008AE0F80789F587E797E7918380838091E1
:1044E00060008093F60388E19BE00FB6F894A895EE
:1044F000809360000FBE9093600067CEEEEFFAE00D
:10450000D5CF808191818737974709F05ECEA895F6
:10451000809160008861809360008091F6038093B1
:104520006000EE3F2AE0F20789F08091FE0A909148
:10453000FF0A9183808349CE8081918187379807D4
:1045400051F29093FF0A8093FE0AC5CF1092FF0AA2
:104550001092FE0A3ACE0E94AD06DC0112960D9131
:104560001C910115110509F4E8CED801ED91FC91DB
:104570000190F081E02DBE016B5E7F4FC80109956F
:10458000811123CEF80100851185EBCF181619068D
:104590000CF41BCED2CEF1E0FF12BECE64E374E089
:1045A00004CF1F920F920FB60F9211242F933F93B7
:1045B0008F939F93AF93BF938091EA039091EB0306
:1045C000A091EC03B091ED033091E90323E0230FB8
:1045D0002D3758F50196A11DB11D2093E903809355
:1045E000EA039093EB03A093EC03B093ED03809167
:1045F000EE039091EF03A091F003B091F1030196C7
:10460000A11DB11D8093EE039093EF03A093F003DF
:10461000B093F103BF91AF919F918F913F912F91F3
:104620000F900FBE0F901F90189526E8230F02964B
:10463000A11DB11DD2CF1F920F920FB60F92112460
:104640002F933F934F935F936F937F938F939F939A
:10465000AF93BF93EF93FF938091B900887F80362B
:1046600009F44AC0F0F5883209F4A5C018F5803184
:1046700009F499C0B8F4882309F4F5C0883009F426
:1046800092C0FF91EF91BF91AF919F918F917F91D8
:104690006F915F914F913F912F910F900FBE0F90AF
:1046A0001F901895883109F486C0803251F78093A5
:1046B000C20314C0803409F49BC040F48033B9F3C2
:1046C0008833F9F68093C20385ECAEC0803509F4D7
:1046D00083C0883509F494C0883499F60E94AE09E5
:1046E000D0CF883909F48AC038F5883729F050F4DA
:1046F000883611F0803729F683E08093C303109247
:10470000C10355C0883809F479C0803919F0803860
:1047100009F0B7CF8091C103803208F06FC0E091FB
:10472000C10381E08E0F8093C1038091BB00F0E054
:10473000EF55FC4F80833BC0803B39F0D0F4803A8A
:1047400009F477C0883A09F09CCF84E08093C303D2
:104750001092A00310929F03F0E0E0E00995809191
:104760009F0381110FC081E080939F0310927F030C
:1047700009C0803C09F4A8CF883C09F4A5CF883B48
:1047800009F07FCFE091A00381E08E0F8093A0031A
:10479000F0E0E158FC4F80818093BB009091A00332
:1047A00080919F0329C08091E8038093BB0085EC32
:1047B0008093BC0066CF9091E7038091E603981741
:1047C00058F5E091E70381E08E0F8093E703F0E076
:1047D000EA53FC4F8081E9CFE091E70381E08E0F3F
:1047E0008093E7038091BB00F0E0EA53FC4F8083A5
:1047F0009091E7038091E6039817C8F285E8D8CF37
:10480000E091E70381E08E0F8093E7038091BB0086
:10481000F0E0EA53FC4F80838091C50381115ECFA5
:1048200081E08093C40384EA8093BC001092C303A8
:1048300028CF85EC8093BC001092C3038091C10304
:10484000803230F4E091C103F0E0EF55FC4F10826C
:104850006091C10370E081EA93E0F0E0E0E0099547
:104860001092C1030ECF1092C20338CFEF92FF9285
:104870000F931F93CF93DF93F82E192FE62E042F5B
:1048800081E0860F880F0E94C10683E00E94C10666
:10489000CF2DD12FEC0EFD2EF11CCE15DF05B9F07A
:1048A00007FF13C0FE0184910E94C106182F80E00B
:1048B0000E94C106812321968111EFCFDF91CF9114
:1048C0001F910F91FF90EF9008958881EDCF81E0C7
:1048D000F5CFFC01862F22E330E03383228328E5E5
:1048E00032E03583248328EE33E037832683128633
:1048F0001486138616861586108A1786128A118AE0
:10490000148A138A168A158A108E178A6083718317
:104910001186108662E00C948908CF9310920B04E4
:1049200010920A0488EE93E0A0E0B0E080930C04BB
:1049300090930D04A0930E04B0930F0482E891E0CD
:1049400090930904809308048FEF9FEF90931504D0
:104950008093140410926309109262098DE795E028
:104960009093E1098093E0091092E2091092E30923
:1049700010927D0984E991E0909361098093600928
:1049800010926509109264091092790910927C09BD
:1049900010927009109271091092720910927309A5
:1049A0008FEF80937A0980937F09E3E8F9E089E942
:1049B00099E0CFEFC1938E179F07E1F787E89AE060
:1049C000909369098093680986E59BE090936B0951
:1049D00080936A0980EB98E190936D0980936C094C
:1049E00088EE9DE090936F0980936E0930E020E09F
:1049F00040E069E084E699E00E94870A1092B109DC
:104A00001092B00987E895E090939A0980939909EC
:104A100088E594E090939E0980939D0988E08093B7
:104A20009F091092A0091092BD091092DD0981E042
:104A30008093DE098093DF0984EB91E090939C09D9
:104A400080939B0984E699E00E94DB0B1092AC09ED
:104A50001092AE09C093AD09C093AF09E0919B09D4
:104A6000F0919C090280F381E02D84E699E009959C
:104A70008AEE95E09093B3098093B2091092C00931
:104A80008CE080938C0984E080938D0986E080938C
:104A90008E0962E170E08AE998E00E94692467E08B
:104AA00070E08BEB98E00E94692465E170E08CED8A
:104AB00098E00E94692464E170E08DEF98E00E9424
:104AC000692463E170E08EE199E00E94692468E066
:104AD00070E08FE399E00E9469248AE496E1909364
:104AE00083088093820882E596E1909385088093FD
:104AF00084088AE596E1909387088093860882E689
:104B000096E190938908809388088AE696E19093CD
:104B10008B0880938A0882E796E190938D088093B2
:104B20008C088AE796E190938F0880938E0882E83C
:104B300096E190939108809390088AE896E190938B
:104B400093088093920882E996E190939508809368
:104B500094088AE996E1909397088093960882EAF0
:104B600096E1909399088093980880EB91E0909358
:104B70007B0880937A0810926D0810926C0888EA7E
:104B800091E0909361088093600880EA91E09093AF
:104B9000590880935808CF910895789484B582601D
:104BA00084BD84B5816084BD85B5826085BD85B5D1
:104BB000816085BD80916E00816080936E0010924F
:104BC00081008091810082608093810080918100CA
:104BD000816080938100809180008160809380005B
:104BE000809191008260809391008091910081601A
:104BF00080939100809190008160809390008091DB
:104C0000C10084608093C1008091C1008260809364
:104C1000C1008091C10081608093C1008091C30078
:104C200081608093C3008091C00082608093C00047
:104C30008091C20081608093C20080917A0084607C
:104C400080937A0080917A00826080937A008091CC
:104C50007A00816080937A0080917A0080688093E6
:104C60007A00109207041092F9031092F8038091D1
:104C7000D70081608093D70080EA8093D80089B5FF
:104C8000806189BD89B5826089BD09B400FEFDCF10
:104C900061E070E080E090E00E94EA088091D80036
:104CA0008F7C80618093D8008091E000807F80932A
:104CB000E0008091E1008E7E8093E1008DE08093A2
:104CC000E200559A209A8FEF9FEF909315048093FE
:104CD00014042CE638E080916C0890916D08FC017A
:104CE000EE0FFF1FE259F74F40E658E05183408333
:104CF0003093670820936608109262081092630848
:104D00001092640810926508FC01EE0FFF1FE05935
:104D1000F74F4AE758E0518340833093810820934E
:104D2000800810927C0810927D0810927E081092E4
:104D30007F080396FC01EE0FFF1FE459F74F48E58B
:104D400058E05183408330935F0820935E081092AF
:104D50005A0810925B0810925C0810925D089093BC
:104D60006D0880936C08E901F12CE12C229680916A
:104D70006C0890916D08E816F9066CF488819981A9
:104D8000DC01ED91FC910190F081E02D0995BFEFE0
:104D9000EB1AFB0AEBCF0E94A209CEE6D8E0F12C79
:104DA000E12C20916C0830916D08E216F306BCF4FA
:104DB00089919991FC0142815381648175818416A6
:104DC0009506A606B70638F00190F081E02D028026
:104DD000F381E02D0995FFEFEF1AFF0AE2CFE09192
:104DE0006E08F0916F08C280D380E480F580ECE615
:104DF000F8E090E080E03296821793078CF4A0816F
:104E0000B18112964D915D916D917C9115974C15E4
:104E10005D056E057F0510F46A017B010196EBCFFD
:104E20000E94A2094B015C018C149D04AE04BF04D6
:104E300008F0B3CFC701B601681979098A099B093F
:104E40000E94EA080E94A2094B015C01A6CFFC0166
:104E500088279927E89421912032E9F3293010F02E
:104E60002E30C8F32B3241F02D3239F4689404C04F
:104E70000E945527820F911D219120532A30C0F3A3
:104E80001EF4909581959F4F0895FB01DC0102C0AF
:104E900005900D9241505040D8F70895FB01DC0178
:104EA00005900D920020E1F708957AE0979F902DEC
:104EB000879F802D910D112408955058BB27AA2754
:104EC0000E9475270C94E8280E94DA2838F00E9486
:104ED000E12820F039F49F3F19F426F40C94D728E8
:104EE0000EF4E095E7FB0C94D128E92F0E94F928F5
:104EF00058F3BA17620773078407950720F079F40F
:104F0000A6F50C941B290EF4E0950B2EBA2FA02DBC
:104F10000B01B90190010C01CA01A0011124FF2766
:104F2000591B99F0593F50F4503E68F11A16F04061
:104F3000A22F232F342F4427585FF3CF4695379560
:104F40002795A795F0405395C9F77EF41F16BA0B25
:104F5000620B730B840BBAF09150A1F0FF0FBB1FD3
:104F6000661F771F881FC2F70EC0BA0F621F731F1C
:104F7000841F48F4879577956795B795F7959E3F79
:104F800008F0B0CF9395880F08F09927EE0F97950A
:104F9000879508950E94AD2808F481E008950E9445
:104FA000E3270C94E8280E94E12858F00E94DA28B0
:104FB00040F029F45F3F29F00C94D12851110C9452
:104FC0001C290C94D7280E94F92868F39923B1F37F
:104FD000552391F3951B550BBB27AA27621773071F
:104FE000840738F09F5F5F4F220F331F441FAA1FB3
:104FF000A9F335D00E2E3AF0E0E832D0915050406F
:10500000E695001CCAF72BD0FE2F29D0660F771F1C
:10501000881FBB1F261737074807AB07B0E809F002
:10502000BB0B802DBF01FF2793585F4F3AF09E3F87
:10503000510578F00C94D1280C941C295F3FE4F3BF
:10504000983ED4F3869577956795B795F7959F5FCA
:10505000C9F7880F911D9695879597F90895E1E016
:10506000660F771F881FBB1F621773078407BA0775
:1050700020F0621B730B840BBA0BEE1F88F7E095D0
:1050800008950E94012988F09F5798F0B92F992719
:10509000B751B0F0E1F0660F771F881F991F1AF023
:1050A000BA95C9F714C0B13091F00E941B29B1E044
:1050B00008950C941B29672F782F8827B85F39F043
:1050C000B93FCCF3869577956795B395D9F73EF4BC
:1050D00090958095709561957F4F8F4F9F4F089564
:1050E000E89409C097FB3EF4909580957095619582
:1050F0007F4F8F4F9F4F9923A9F0F92F96E9BB2738
:105100009395F695879577956795B795F111F8CFB3
:10511000FAF4BB0F11F460FF1BC06F5F7F4F8F4F1E
:105120009F4F16C0882311F096E911C0772321F014
:105130009EE8872F762F05C0662371F096E8862FAC
:1051400070E060E02AF09A95660F771F881FDAF703
:10515000880F9695879597F90895990F0008550F30
:10516000AA0BE0E8FEEF16161706E807F907C0F0ED
:1051700012161306E407F50798F0621B730B840BF5
:10518000950B39F40A2661F0232B242B252B21F4CF
:1051900008950A2609F4A140A6958FEF811D811D6F
:1051A000089597F99F6780E870E060E008959FEFA9
:1051B00080EC089500240A941616170618060906AE
:1051C000089500240A94121613061406050608957D
:1051D000092E0394000C11F4882352F0BB0F40F405
:1051E000BF2B11F460FF04C06F5F7F4F8F4F9F4F45
:1051F000089557FD9058440F551F59F05F3F71F0C7
:105200004795880F97FB991F61F09F3F79F087952D
:105210000895121613061406551FF2CF4695F1DFB6
:1052200008C0161617061806991FF1CF8695710546
:10523000610508940895E894BB2766277727CB017A
:1052400097F908950E94AD2808F48FEF0895AA1BDE
:10525000BB1B51E107C0AA1FBB1FA617B70710F061
:10526000A61BB70B881F991F5A95A9F78095909593
:10527000BC01CD01089597FB072E16F4009407D0CA
:1052800077FD09D00E94272907FC05D03EF49095B0
:1052900081959F4F0895709561957F4F0895A1E284
:1052A0001A2EAA1BBB1BFD010DC0AA1FBB1FEE1FA0
:1052B000FF1FA217B307E407F50720F0A21BB30BEB
:1052C000E40BF50B661F771F881F991F1A9469F767
:1052D00060957095809590959B01AC01BD01CF01C3
:1052E0000895EE0FFF1F0590F491E02D0994DC0165
:1052F00001C06D9341505040E0F70895F894FFCFFE
:1053000001B211FFFFFFFF00E100000000000004F8
:10531000080C1815A015C019FF1815A115C819FFFC
:105320001815AE19FF1815AF19FF1815AE15D516BB
:105330008015A8163F15D316001540158D161415A7
:1053400020160015A115C815DA1612158116CF15ED
:10535000D916F115DB1640152E15A415A619FF0058
:1053600001140A6464323200127A00000428961094
:105370000800008000400000C180810000000000A3
:10538000000053071D0986078407CC078A07A80772
:1053900000000000A2137A13381637160000000030
:1053A0003B102110000000003D17721900000000A2
:0A53B0001E202F12DB0B460CCF0B62
:00000001FF
